:100000000209BB0200000000000000020000000026
:1000100000000002000000000000000200000000DC
:0E0020000000000200000000000000020000CE
:10002E003392D530D503120059EB334010E833F834
:10003E00E933F9EA33FAEB33FBD5F0ED22E5F024A0
:10004E007EA2D513CB92E7CAC9F822C3E498F8E48E
:09005E0099F9E49AFAE49BFB22F3
:10006700BD000BB90029E88CF084F8ACF022E4CD90
:10007700FF75F008E828F8E933F9ED33FDE99CED61
:100087009F4005FDE99CF908D5F0E9E4C9FC22EC9D
:10009700FFF5F0E98420D21CF9ACF075F008E828E8
:1000A700F8EC33FC40079F5006D5F0F222C39FFCC3
:0500B70008D5F0EA226B
:0400BC0085488622CB
:1000C00080030201A0EB5A046005EF5E0470030296
:1000D00001961201615F0460F6EB4F60F2EB700471
:1000E000FAF9F822CF60DB2481CF5009C39F600268
:1000F000500602019D9F50CAF582EE2E4C4D7005B0
:10010000AC8202018C75F0007B1A7F80C3E89CE909
:100110009DEA9E400DC3E89CF8E99DF9EA9EFAEF3E
:1001200042F0DB22ABF0D0E0F8D0E0F9D0E0FAAC5E
:100130008220E7101CEC60BAEB2BFBE833F8E933C4
:10014000F9EA33FA8032EF03FF30E705C0F075F0CB
:1001500000E828F8E933F9EA33FA40B930E7C38018
:10016000ABEED2E7CE33EF33FF92D5EAD2E7CA3314
:10017000EB33FB5002B2D522EB30E71008B8000C8D
:1001800009B900080ABA00040CEC60ECA2D5EC1323
:10019000FBEA92E7FA2274FFFBFAF9F822E480F80E
:0C01A000A2D574FF13FB7A80E480EF22EC
:0B01AC0085489920990280FBC299222F
:1001B700EB4A6011EF4E7017EA33EB3304600DE43E
:1001C700FBF8F9FA22EE33EF330470F80202F0126B
:1001D70002BB5F046009E4CB248150062F5009025B
:1001E70002FA2F40030202F7C0E0EC4D7044BE80D4
:1001F70006D0E0FC0202E6E849701CBA8008ECF879
:10020700EDF9EEFA80EBEE8AF0A4F9E5F00202A030
:10021700EECAFEEDF9ECF8E88EF0A4FBE5F0C98E26
:10022700F0A429F8E435F0CA8EF0A42AF9E435F0F1
:100237008067E8497005BA80D780C3E88CF0A4AB23
:10024700F0E98CF0A42BFBE435F0FFE88DF0A42B4C
:10025700E5F03FFBE433CC8AF0A42BFBE5F03CFF51
:10026700E98DF0A42BFBE5F03FFFE433C88EF0A443
:100277002BFBE5F03FC83400C98EF0A428F8E5F061
:1002870039F9E433CE8AF0A429F9E5F03ECA8DF0B6
:10029700A428F8E5F039F9E43AFA33D0E0FC50063F
:1002A7000CBC000E804DEB2BFBE833F8E933F9EA81
:1002B70033FA8017EED2E7CE33EF33FF92D5EAD287
:1002C700E7CA33EB33FB5002B2D522EB30E7100815
:1002D700B8000C09B900080ABA00040CEC6014A2B3
:1002E700D5EC13FBEA92E7FA2274FFFBFAF9F8223E
:0F02F700E480F8A2D574FF13FB7A80E480EF2235
:10030600AA48E54BA84A0A8006A2E713C813C8DA2A
:09031600F8F95300015301002223
:0F031F00AB01AA007900780075F010EB112E22C7
:0B032E00858648E4F549A848A949224B
:1003390085484AA84A054AA9490549E7F6E66002F7
:0503490080F1A848222C
:10034E0074F8CF6480CFCB6480CBF58204700280CA
:10035E0043C3E89CF5F0E99D42F0EA9E42F0EB9F24
:10036E0045F060305018E5825CFCE582F428558239
:10037E00F8502109B9001D0ABA00190B8016E58242
:10038E0058F8E582F42C5582FC50090DBD00050E7F
:10039E00BE00010FC3E89CF5F0E99D42F0EA9E42D3
:1003AE00F0EB9F45F06007CF4B20E701B3EF222221
:1003BE00EC600FE8C333F8E933F9EA33FAEB33FBB9
:0303CE00DCF1223D
:1003D100754B00C3E54B9405500BE54A254BF87668
:1003E10020054B80EEE54A254BF87600154BE54A92
:1003F100254BF885004C7C0A7D00A848A949116766
:10040100A804A905743028F9A84CA6017C0A7D002E
:10041100A848A9491167850048850149E849700242
:070421008004154B80C82286
:100428008503297527C0752800E5254526700280B3
:100438004C74016525700474006526700E740825D7
:1004480027F52774003528F5288032740265257051
:100458000474006526700E74102527F5277400357E
:1004680028F52880187403652570047400652670C3
:100478000C74182527F52774003528F5288527805A
:10048800C2A085274885284911BCE5AA20E7028033
:10049800F9712E85002A75480075490011BCE5AA36
:1004A80020E70280F9712E85002B754800754900F8
:1004B80011BCE5AA20E70280F9712E85002CD2A094
:1004C8007B03A829792AE7F67A01C3EB9AFBE49B18
:0D04D800FC0809EB70F0852A11852B12221B
:1004E500A825A926711F7C007D007E7A7507441119
:0D04F500C07C007D007E0075074031B722FD
:10050200852526A826E6600AA826864831AC052657
:0D05120080F175480D31AC75480A31AC22FE
:08051F00E493F608A3D9F922C8
:0405270075D5512213
:10052B00758780758922758840759850758DF5751E
:05053B00B003D28E2286
:10054000852526A826E6600AA826864831AC052619
:0305500080F12215
:10055300852682852783E493F8601D852682852777
:1005630083E493F9A825A601052574012526F5261C
:0D05730074003527F52780D8A825760022D2
:1005800075460075470085252C85262D85272E85E7
:10059000282FE52C64FF7010E52D64FF700AE52E0E
:1005A00064FF7004E52F64FF7017852948753C4E81
:1005B000753D61753E4E753F0075493C7139780354
:1005C00022752A01E52F54806010E52F6480F8859C
:1005D000002F052AA829762D0529E52C452D452E25
:1005E000452F701185294875403075410075494087
:1005F0007139780022E52C64007010E52D640070DC
:100600000AE52E64807004E52F647F701785294801
:1006100075424975434E75444675450075494271AA
:1006200039A82A22C37C007D007E8075073FA82C54
:10063000A92DAA2EAB2F714E4004780080027801BC
:10064000E86023A82CA92DAA2EAB2F7C007D007E6C
:100650002075074131B785002C85012D85022E8537
:10066000032F154780BEC37C007D007E20750741A7
:10067000A82CA92DAA2EAB2F714E50047800800211
:100680007801E86023A82CA92DAA2EAB2F7CCD7D64
:10069000CC7ECC75073D31B785002C85012D8502B8
:1006A0002E85032F054780BE7C01A82CA92DAA2EDC
:1006B000AB2F71BE85002C85012D85022E85032F61
:1006C000C3E52F947FF885002B752F01AC00A82C73
:1006D000A92DAA2EAB2F71BE85002C85012D850278
:1006E0002E85032F7430252FF9A829A6010529C3CB
:1006F00074016480F8E547648098400FD374066401
:1007000080F8E54764809850028009A829762E0574
:1007100029754601752B06E52B7002E182752F00C5
:100720007C02A82CA92DAA2EAB2F71BEE52C28F88F
:10073000E52D39F9E52E3AFAE52F3BFB85002C85AE
:10074000012D85022E85032F7C01A82CA92DAA2E10
:10075000AB2F71BE85002C85012D85022E85032FC0
:100760007430252FF9A829A6010529E546700F1533
:1007700047E5477009A829762E0529754601152BEE
:10078000E117E52924FFF88601E964307004152992
:1007900080F0E52924FFF88601E9642E700215290E
:1007A000E547604EA82976650529C374006480F882
:1007B000E547648098500DA829762D0529C374005B
:1007C0009547F54785472BD3E5479409401175F0C8
:1007D0000AE52B84F8743028F9A829A601052975A3
:1007E000F00AE52B84E5F0F8743028F9A829A60171
:0907F0000529A8297600780022F1
:10080600752600752700752800752900754800753E
:100816004900A825860185014AE933E495E0F54BB0
:10082600120306E52628F526E52739F52775280754
:10083600752900C3E528940074006480F8E52964EE
:10084600809840427801E526088007C333C52733E0
:10085600C527D8F7F526852848852949E5252401A1
:10086600F8864AE633E495E0F54B120306E52628BA
:10087600F526E52739F527C3E5289401F528E52966
:100886009400F52980AD752807752900C3E52894DD
:100896000574006480F8E52964809840427801E593
:1008A60026088007C333C52733C527D8F7F526851D
:1008B6002848852949E5252402F8864AE633E49541
:1008C600E0F54B120306E52628F526E52739F52738
:1008D600C3E5289401F528E5299400F52980ADA8FB
:0408E60026A92722F6
:1008EA00752A00752B0085252C85262DC3E52594B0
:1008FA000074006480F8E5266480985013752A0114
:10090A00752B00C374009525F52C74009526F52DDA
:10091A00852C48852D4985274A1203D175280675E5
:10092A002900D3E5289400E52994004025E52725E8
:10093A0028F8C3E5289401F9E5299400FAE527295E
:10094A00F9E7F6C3E5289401F528E5299400F52985
:10095A0080D0A8277620E52A452B603475280075B3
:10096A002900E5272528F88601E96420700E74011C
:10097A002528F52874003529F52980E6C3E5289449
:10098A0001F528E5299400F529E5272528F8762D8B
:01099A00223A
:10099B00A825A92612031F7C6F7D127E8375074045
:1009AB001201B77C007D007E807507451200C022C6
:1009BB00758180120C2512052712052BD2A000750C
:1009CB0025007526007B221204287B03A8087922B8
:1009DB00E7F67A01C3EB9AFBE49BFC0809EB70F09A
:1009EB00A808A62208A623850825110685001885C8
:1009FB000119850025850126319B85001A85011B70
:100A0B0085021C85031D7525098538268539271216
:100A1B000553752509120540752509853626853739
:100A2B0027120553752509120540752509853A26A8
:100A3B00853B271205537525091205408518258519
:100A4B00192675270911EA7525091205407525091F
:100A5B0085362685372712055375250912054075EE
:100A6B002509853426853527120553752509120569
:100A7B0040851A25851B26851C27851D2875290968
:100A8B001205807525091205027D077E567F3CDF16
:100A9B00FEDEFCDDFA7525017526007B221204288B
:100AAB007B03A8087922E7F67A01C3EB9AFBE49B58
:100ABB00FC0809EB70F0A808A62208A623850825D8
:100ACB001106850018850119850025850126319BA6
:100ADB0085001A85011B85021C85031D851825853C
:100AEB0019261204E585001E85011F85022085034A
:100AFB002175250985362685372712055375250956
:100B0B001205407525098532268533271205537545
:100B1B002509120502752509853A26853B271205FD
:100B2B005375250912054085182585192675270942
:100B3B0011EA752509120540752509853626853775
:100B4B00271205537525091205407525098534268D
:100B5B00853527120553752509120540851A2585FC
:100B6B001B26851C27851D287529091205807525CF
:100B7B000912054075250985362685372712055339
:100B8B0075250912054075250985302685312712F3
:100B9B000553752509120540851E25851F268520C1
:100BAB00278521287529091205807525091205400D
:100BBB0075250985362685372712055375250912A4
:100BCB0005407525091205407D077E567F3CDFFEEB
:080BDB00DEFCDDFA21CA80FEF8
:0E0C25007830790C7582E375830B12051F225F
:0D07F90041444320726573756C743A200012
:020BE3001B0CE9
:020BE500070CFB
:020BE700FB0B06
:020BE900220CDC
:020BEB00110CEB
:020BED00F90706
:040BEF004E614E0005
:020BF3003000D0
:040BF500494E46001F
:010BF90000FB
:010BFA0000FA
:0C0BFB0041444320696E7075743A20007C
:0A0C07006368616E6E656C203100B9
:0A0C11006368616E6E656C203000B0
:070C1B004761696E3A2000F9
:030C22000D0A00B8
:00000001FF
