:1000000002013602000000000000000200000000B3
:1000100000000002000000000000000200000000DC
:0E0020000000000200000000000000020000CE
:0B002E00858622E4F523A822A92322E6
:040039008522862274
:0B003D0085229920990280FBC29922C5
:10004800851A1BA81BE6600AA81B8622113D051B02
:0300580080F12212
:10005B0085031E751CC0751D00E51A451B700280BB
:10006B004C7401651A70047400651B700E741025B6
:10007B001CF51C7400351DF51D80327402651A7059
:10008B00047400651B700E7420251CF51C74003560
:10009B001DF51D80187403651A70047400651B70C0
:1000AB000C7430251CF51C7400351DF51DC2A08584
:1000BB001C22851D231139E5AA20E70280F9112E98
:1000CB0085001F7522007523001139E5AA20E70270
:1000DB0080F9112E8500207522007523001139E55A
:1000EB00AA20E70280F9112E850021D2A07B03A85C
:1000FB001E791FE7F67A01C3EB9AFBE49BFC080918
:0A010B00EB70F0851FA08520A122F3
:08011500E493F608A3D9F922D6
:04011D0075D5512221
:10012100758780758922758840759850758DF5752C
:05013100B003D28E2294
:10013600758180758296758301780B790C3115313E
:100146001D3121D2A000751A00751B007B17115BAB
:100156007B0378087917E7F67A01C3EB9AFBE49BF1
:10016600FC0809EB70F0851708851809751A0B113C
:1001760048850822113D850922113D850A22113D37
:100186007D207EAB7F39DFFEDEFCDDFA80B880FEA7
:0C0196006368616E6E656C20310A000029
:00000001FF
