:100000000203D30200000000000000020000000014
:1000100000000002000000000000000200000000DC
:0E0020000000000200000000000000020000CE
:10002E00BD000BB90029E88CF084F8ACF022E4CDC9
:10003E00FF75F008E828F8E933F9ED33FDE99CED9A
:10004E009F4005FDE99CF908D5F0E9E4C9FC22ECD6
:10005E00FFF5F0E98420D21CF9ACF075F008E82821
:10006E00F8EC33FC40079F5006D5F0F222C39FFCFC
:05007E0008D5F0EA22A4
:10008300852627A8270527E6600280F7C3E527957D
:0C00930026F8C3E89401F8E49400F92278
:10009F00AA20E523A8220A8006A2E713C813C8DA0C
:0900AF00F8F9530001530100228D
:0B00B800858620E4F521A820A9212264
:0400C30085208622EC
:0B00C70085209920990280FBC299223D
:1000D200C2D5ED30E709B2D5E4C39CFCE49DFDE94D
:1000E20030E715B2D5E4C398F8E499F912002EC3AB
:1000F200E49CFCE49DFD800312002E30D507C3E48E
:0601020098F8E499F922CF
:100108007521007522008520261183C3E89401F526
:1001180023E99400F524C3E5219523E5246480F8B8
:10012800E5226480985030E5202521F88625E520D1
:100138002523F9E7F6E5202523F8A62574012521CE
:10014800F52174003522F522C3E5239401F523E552
:08015800249400F52480BF226D
:10016000758780758922758840759850758DF575ED
:05017000B003D28E2255
:0401750075D55122C9
:08017900E493F608A3D9F92272
:1001810085031C751AC0751B00E51845197002809E
:100191004C74016518700474006519700E74102593
:1001A1001AF51A7400351BF51B803274026518703C
:1001B1000474006519700E7420251AF51A7400353F
:1001C1001BF51B80187403651870047400651970A1
:1001D1000C7430251AF51A7400351BF51BC2A08565
:1001E1001A20851B2111C3E5AA20E70280F911B865
:1001F10085001D75200075210011C3E5AA20E702C5
:1002010080F911B885001E75200075210011C3E524
:10021100AA20E70280F911B885001FD2A07B03A8AC
:100221001C791DE7F67A01C3EB9AFBE49BFC0809F4
:0A023100EB70F0851DA0851EA122D0
:10023B0085181D85191EC3E518940074006480F899
:10024B00E519648098500DC374009518F518740067
:10025B009519F519751B00751C00E51A251BF885FA
:10026B00001F7C0A7D00A818A91911D2A804A905A2
:10027B00743028F9A81FA6017401251BF51B740007
:10028B00351CF51C7C0A7D00A818A91911D2850014
:10029B0018850119D3E8940074006480FAE964802E
:1002AB009A50B7C3E51D940074006480F8E51E6492
:1002BB0080985013E51A251BF8762D7401251BF534
:1002CB001B7400351CF51CE51A251BF87600851AE6
:0402DB0020310822A4
:1002DF00851819A819E6600AA819862011C70519EB
:0302EF0080F12279
:1002F200751900751A00751B00751C0075200075B4
:100302002100A8188601850122E933E495E0F5234E
:10031200119FE51928F519E51A39F51A751B0775A4
:100322001C00C3E51B940074006480F8E51C648023
:100332009840417801E519088007C333C51A33C5CF
:100342001AD8F7F519851B20851C21E5182401F818
:100352008622E633E495E0F523119FE51928F51985
:10036200E51A39F51AC3E51B9401F51BE51C940047
:10037200F51C80AE751B07751C00C3E51B94057444
:10038200006480F8E51C64809840417801E5190812
:100392008007C333C51A33C51AD8F7F519851B2050
:1003A200851C21E5182402F88622E633E495E0F55F
:1003B20023119FE51928F519E51A39F51AC3E51B2A
:1003C2009401F51BE51C9400F51C80AEA819A91A2E
:0103D2002208
:1003D30075818012044331753160D2A00075180015
:1003E3007519007B1531817B03A8087915E7F67A27
:1003F30001C3EB9AFBE49BFC0809EB70F0A808A689
:100403001508A61685081851F28500138501147581
:10041300183051DF851318851419751A09513B7566
:10042300180951DF7D077EF87F5DDFFEDEFCDDFA14
:0404330080AB80FE1C
:0E0443007830790C75823775830412017922A6
:0C0437006368616E6E656C20312000006F
:00000001FF
