:1000000002063102000000000000000200000000B3
:1000100000000002000000000000000200000000DC
:0E0020000000000200000000000000020000CE
:10002E00BD000BB90029E88CF084F8ACF022E4CDC9
:10003E00FF75F008E828F8E933F9ED33FDE99CED9A
:10004E009F4005FDE99CF908D5F0E9E4C9FC22ECD6
:10005E00FFF5F0E98420D21CF9ACF075F008E82821
:10006E00F8EC33FC40079F5006D5F0F222C39FFCFC
:05007E0008D5F0EA22A4
:10008300C2A6C2A4C2A574C0253EF87400353FF9C8
:0C00930085003E85013F850080D2A6223A
:0C009F00C2A6D2A4C2A5853E80D2A62233
:1000AB00C2A6C2A4C2A574B8253EF87400353FF9A8
:0C00BB0085003E85013F850080D2A62212
:1000C700C2A6C2A4C2A57440253EF87400353FF904
:0C00D70085003E85013F850080D2A622F6
:1000E300C2D5ED30E709B2D5E4C39CFCE49DFDE93C
:1000F30030E715B2D5E4C398F8E499F912002EC39A
:10010300E49CFCE49DFD800312002E30D507C3E47C
:0601130098F8E499F922BE
:10011900753A00753B007806E53785363C08800856
:10012900A2E713C53C13C53CD8F6F53D7803E5397C
:1001390085383E088008A2E713C53E13C53ED8F6A8
:10014900F53F11ABE53C453D700EC2A2D2A3853601
:100159003E85373F11C7801ED2A2C2A37C407D00D5
:10016900A836A93711E3A804A905744028F53E74F7
:100179000039F53F11C7753E00753F001183853A77
:060189003E119FC2A622F8
:0B018F00852B9920990280FBC2992269
:10019A00752E00C3E52E9405500BE52D252EF87615
:1001AA0020052E80EEE52D252EF87600152EE52D5C
:1001BA00252EF885002F7C0A7D00A82BA92C112E4C
:1001CA00A804A905743028F9A82FA6017C0A7D0085
:1001DA00A82BA92C112E85002B85012CE849700229
:0701EA008004152E80C822DD
:1001F100AA2BE52EA82D0A8006A2E713C813C8DA98
:09020100F8F95300015301002239
:0B020A0085862BE4F52CA82BA92C22E4
:04021500852B86228D
:10021900752D00752E00D3E52D948074006480F847
:10022900E52E6480985041753400753500D3E53466
:10023900944074006480F8E535648098501C852DDD
:1002490036852E3785343885353931197401253489
:10025900F53474003535F53580D37401252DF52D28
:090269007400352EF52E80AE2242
:09027200752B00752C00511922B6
:0E027B00D2A6C2A4C2A575803FC2A2C2A32211
:08028900E493F608A3D9F92261
:0402910075D55122AC
:10029500758780758922758840759850758DF575B7
:0502A500B003D28E221F
:1002AA00851F20A820E6600AA820862B318F05200A
:0302BA0080F122AE
:1002BD00852082852183E493F8601D852082852128
:1002CD0083E493F9A81FA601051F74012520F520CD
:0D02DD0074003521F52180D8A81F7600227D
:1002EA008503237521C0752200E51F452070028011
:1002FA004C7401651F700474006520700E74082523
:10030A0021F52174003522F52280327402651F70AE
:10031A000474006520700E74102521F521740035CF
:10032A0022F52280187403651F700474006520701A
:10033A000C74182521F52174003522F522852180B7
:10034A00C2A085212B85222C5115E5AA20E702801F
:10035A00F9510A850024752B00752C005115E5AA60
:10036A0020E70280F9510A850025752B00752C00BB
:10037A005115E5AA20E70280F9510A850026D2A084
:10038A007B03A8237924E7F67A01C3EB9AFBE49B63
:0D039A00FC0809EB70F085240C85250D2270
:1003A700752000752100752200752300752B0075D7
:1003B7002C00A81F860185012DE933E495E0F52E71
:1003C70031F1E52028F520E52139F521752207755A
:1003D7002300C3E522940074006480F8E523648059
:1003E7009840417801E520088007C333C52133C50C
:1003F70021D8F7F52085222B85232CE51F2401F82A
:10040700862DE633E495E0F52E31F1E52028F52039
:10041700E52139F521C3E5229401F522E52394006E
:10042700F52380AE752207752300C3E52294057472
:10043700006480F8E52364809840417801E520084E
:100447008007C333C52133C521D8F7F52085222B73
:1004570085232CE51F2402F8862DE633E495E0F585
:100467002E31F1E52028F520E52139F521C3E522D4
:100477009401F522E5239400F52380AEA820A92155
:010487002252
:1004880075230075240075250075260075270175EC
:1004980028007806E520851F29088008A2E713C5EB
:1004A8002913C529D8F6F52A7803E52285213E08BF
:1004B8008008A2E713C53E13C53ED8F6F53F11AB39
:1004C800E529452A700EC2A2D2A3851F3E85203F8A
:1004D80011C7801ED2A2C2A37C407D00A81FA920FC
:1004E80011E3A804A905744028F53E740039F53FC6
:1004F80011C7753E00753F0011837C087D00A82157
:10050800A92211E3A804A9058500258501267523DC
:1005180000752400C3E5259401F9E5269400FAC383
:10052800E52399EA6480F8E52464809850207801EE
:10053800E527088007C333C52833C528D8F7F5272A
:1005480074012523F52374003524F52480C6D3E5EA
:1005580021940074006480F8E52264809840127841
:1005680001E527088007C333C52833C528D8F7F520
:090578002785273E119FC2A6222F
:10058100752400752500851F26852027C3E51F9446
:100591000074006480F8E52064809850137524018C
:1005A100752500C37400951FF52674009520F52765
:1005B10085262B85272C85212D319A7522067523B9
:1005C10000D3E5229400E52394004025E52125226E
:1005D100F8C3E5229401F9E5239400FAE52129F90C
:1005E100E7F6C3E5229401F522E5239400F5238083
:1005F100D0A8217620E52445256034752200752395
:1006010000E5212522F88601E96420700E74012598
:1006110022F52274003523F52380E6C3E5229401F7
:10062100F522E5239400F523E5212522F8762D22F4
:1006310075818012072E51915195D2A000751A0033
:10064100751B00517B5172751F007520007B1C5179
:10065100EA7B03A808791CE7F67A01C3EB9AFBE46D
:100661009BFC0809EB70F0A808A61C08A61D8508CC
:100671001F71A7850018850119751F09853020850F
:10068100312151BD751F0951AA85181F8519207582
:100691002109B181751F0951AA751F09853220856C
:1006A100332151BD751F0951AA7A06E519A8180A07
:1006B1008006A2E713C813C8DAF8F9C3744098F5A5
:1006C10021740099F522851A1F851B2091887401D8
:1006D100251AF51A7400351BF51B7480651A700410
:1006E1007400651B7008751A00751B005172C148B2
:0206F10080FE89
:0E072E007830790475822775830712028922BC
:0D06F30041444320726573756C743A200019
:0C07000041444320696E7075743A20007B
:0A070C006368616E6E656C203000BA
:0A0716006368616E6E656C203100AF
:070720004761696E3A2000F9
:02072700F306D7
:020729002B079C
:03072B000D0A00B4
:00000001FF
