:100000000206B6020000000000000002000000002E
:1000100000000002000000000000000200000000DC
:0E0020000000000200000000000000020000CE
:10002E00BD000BB90029E88CF084F8ACF022E4CDC9
:10003E00FF75F008E828F8E933F9ED33FDE99CED9A
:10004E009F4005FDE99CF908D5F0E9E4C9FC22ECD6
:10005E00FFF5F0E98420D21CF9ACF075F008E82821
:10006E00F8EC33FC40079F5006D5F0F222C39FFCFC
:05007E0008D5F0EA22A4
:10008300C2A6C2A4C2A574C0253EF87400353FF9C8
:0C00930085003E85013F850080D2A6223A
:0C009F00C2A6D2A4C2A5853E80D2A62233
:1000AB00C2A6C2A4C2A574B8253EF87400353FF9A8
:0C00BB0085003E85013F850080D2A62212
:1000C700C2A6C2A4C2A57440253EF87400353FF904
:0C00D70085003E85013F850080D2A622F6
:1000E300C2D5ED30E709B2D5E4C39CFCE49DFDE93C
:1000F30030E715B2D5E4C398F8E499F912002EC39A
:10010300E49CFCE49DFD800312002E30D507C3E47C
:0601130098F8E499F922BE
:10011900753A00753B007806E53785363C08800856
:10012900A2E713C53C13C53CD8F6F53D7803E5397C
:1001390085383E088008A2E713C53E13C53ED8F6A8
:10014900F53F11ABE53C453D700EC2A2D2A3853601
:100159003E85373F11C7801AD2A2C2A37C407D00D9
:10016900A836A93711E3A804A90585003E85013FF2
:1001790011C7753E00753F001183853A3E119FC234
:02018900A622AC
:0B018B00852B9920990280FBC299226D
:10019600752E00C3E52E9405500BE52D252EF87619
:1001A60020052E80EEE52D252EF87600152EE52D60
:1001B600252EF885002F7C0A7D00A82BA92C112E50
:1001C600A804A905743028F9A82FA6017C0A7D0089
:1001D600A82BA92C112E85002B85012CE84970022D
:0701E6008004152E80C822E1
:1001ED00752D00752E00D3E52D952BE52C6480F82B
:1001FD00E52E6480985041753400753500D3E53493
:10020D00944074006480F8E535648098501C852D09
:10021D0036852E37853438853539311974012534B5
:10022D00F53474003535F53580D37401252DF52D54
:09023D007400352EF52E80AE226E
:04024600852B86225C
:0B024A0085862BE4F52CA82BA92C22A4
:10025500AA2BE52EA82D0A8006A2E713C813C8DA33
:09026500F8F953000153010022D5
:04026E0075D55122CF
:08027200E493F608A3D9F92278
:09027A00851F2B85202C31ED229B
:0E028300D2A6C2A4C2A575803FC2A2C2A32209
:10029100758780758922758840759850758DF575BB
:0502A100B003D28E2223
:1002A600752000752100752200752300752B0075D9
:1002B6002C00A81F860185012DE933E495E0F52E73
:1002C6005155E52028F520E52139F52175220775D8
:1002D6002300C3E522940074006480F8E52364805B
:1002E6009840417801E520088007C333C52133C50E
:1002F60021D8F7F52085222B85232CE51F2401F82C
:10030600862DE633E495E0F52E5155E52028F520B7
:10031600E52139F521C3E5229401F522E523940070
:10032600F52380AE752207752300C3E52294057474
:10033600006480F8E52364809840417801E5200850
:100346008007C333C52133C521D8F7F52085222B75
:1003560085232CE51F2402F8862DE633E495E0F587
:100366002E5155E52028F520E52139F521C3E52252
:100376009401F522E5239400F52380AEA820A92157
:010386002254
:10038700852082852183E493F8601D85208285215D
:1003970083E493F9A81FA601051F74012520F52002
:0D03A70074003521F52180D8A81F760022B2
:1003B4007521007522007523FF7524007806E52059
:1003C400851F25088008A2E713C52513C525D8F67F
:1003D400F526752100752200C3E521940874006494
:1003E40080F8E5226480985051E5254526700EC2B8
:1003F400A2D2A3851F3E85203F11C7801AD2A2C274
:10040400A37C407D00A81FA92011E3A804A90585A9
:10041400003E85013F11C785213E85223F11AB7502
:100424003E00753F00118385233E119F74012521F1
:0D043400F52174003522F522809EC2A6221B
:100441008503237521C0752200E51F4520700280B8
:100451004C7401651F700474006520700E740825CA
:1004610021F52174003522F52280327402651F7056
:100471000474006520700E74102521F52174003577
:1004810022F52280187403651F70047400652070C2
:100491000C74182521F52174003522F5228521805F
:1004A100C2A085212B85222C5146E5AA20E7028096
:1004B100F9514A850024752B00752C005146E5AA97
:1004C10020E70280F9514A850025752B00752C0023
:1004D1005146E5AA20E70280F9514A850026D2A0BB
:1004E1007B03A8237924E7F67A01C3EB9AFBE49B0B
:0D04F100FC0809EB70F08524FA8525FB223C
:1004FE007523007524007525007526007527017576
:10050E0028007806E520851F29088008A2E713C574
:10051E002913C529D8F6F52A7803E52285213E0848
:10052E008008A2E713C53E13C53ED8F6F53F11ABC2
:10053E00E529452A700EC2A2D2A3851F3E85203F13
:10054E0011C7801AD2A2C2A37C407D00A81FA92089
:10055E0011E3A804A90585003E85013F11C7753E2C
:10056E0000753F0011837C087D00A821A92211E3AC
:10057E00A804A9058500258501267523007524008C
:10058E00C3E5259401F9E5269400FAC3E52399EA1B
:10059E006480F8E52464809850207801E52708806F
:1005AE0007C333C52833C528D8F7F527740125238B
:1005BE00F52374003524F52480C6D3E52194007408
:1005CE00006480F8E52264809840127801E52708DF
:1005DE008007C333C52833C528D8F7F52785273EAE
:0505EE00119FC2A622CE
:1005F300752400752500851F26852027C3E51F94D4
:100603000074006480F8E520648098501375240119
:10061300752500C37400951FF52674009520F527F2
:1006230085262B85272C85212D319675220675234A
:1006330000D3E5229400E52394004025E5212522FB
:10064300F8C3E5229401F9E5239400FAE52129F999
:10065300E7F6C3E5229401F522E5239400F5238010
:10066300D0A8217620E52445256034752200752322
:1006730000E5212522F88601E96420700E74012526
:1006830022F52274003523F52380E6C3E522940185
:10069300F522E5239400F523E5212522F8762D2282
:1006A300851F20A820E6600AA820862B318B052011
:0306B30080F122B1
:1006B600758180120B3A516E5191D2A000751A00C5
:1006C600751B005183751F80752000517A7518A01F
:1006D60075190F751F6475200071B4751F0175209B
:1006E600007B1C91417B03A808791CE7F67A01C3BD
:1006F600EB9AFBE49BFC0809EB70F0A808A61C0823
:10070600A61D85081F51A6850018850119751F09A4
:100716008530208531217187751F09D1A385181F62
:10072600851920752109B1F3751F09D1A3751F0914
:100736008532208533217187751F09D1A37A06E595
:1007460019A8180A8006A2E713C813C8DAF8F9C36D
:10075600744098F521740099F522C3E5219401F5BA
:1007660021E5229400F522851A1F851B2091FE742F
:1007760001251AF51A7400351BF51B7464651A7089
:10078600047400651B700E751A00751B00751F63D7
:09079600752000517AC1E180FEDA
:0E0B3A007830790475823375830B12027222B3
:0D079F0041444320726573756C743A20006C
:0C07AC0041444320696E7075743A2000CF
:0A07B8006368616E6E656C2030000E
:0A07C2006368616E6E656C20310003
:0907CC00303030303130303000A3
:0907D50030303031313030300099
:0907DE0030303030303030300092
:0907E70030313131313131300083
:0907F00030303030303030300080
:0907F90030303030313030300076
:090802003030303030303030006D
:09080B0030303030303030300064
:0908140030303131313131300056
:09081D0030303030313030300051
:0908260030303030313030300048
:09082F003031303030303030003F
:0908380030303030303031300036
:0908410030313131313131300028
:09084A0030303030303031300024
:090853003030303030303130001B
:09085C003031313131313130000D
:090865003030303030303030000A
:09086E00303131313131313000FB
:09087700303130303030303000F7
:09088000303030303030313000EE
:09088900303030303030303000E6
:09089200303131313131313000D7
:09089B00303030303030303000D4
:0908A400303030303030303000CB
:0908AD00303030303030303000C2
:0908B600303030303030303000B9
:0908BF00303130303030303000AF
:0908C800303030303030303000A7
:0908D1003031313030303030009C
:0908DA0030303130303030300094
:0908E3003030303030303030008C
:0908EC0030303030303030300083
:0908F5003030303030303030007A
:0908FE0030303030303030300071
:0909070030313030303031300065
:090910003031303030303130005C
:0909190030313030303031300053
:0909220030313131313131300046
:09092B0030313030303031300041
:0909340030313131313131300034
:09093D0030303030303030300031
:0909460030303030303030300028
:09094F003030303030303030001F
:0909580030303030303030300016
:090961003030303030303030000D
:09096A0030303030303030300004
:09097300303131313131313000F5
:09097C00303030303030313000F1
:09098500303130303030313000E7
:09098E00303131313131313000DA
:09099700303030303030303000D7
:0909A000303030303130303000CD
:0909A900303030303030303000C5
:0909B200303030303030303000BC
:0909BB00303030303031303000B2
:0909C400303030303031303000A9
:0909CD00303030303130303000A0
:0909D60030313030303031300096
:0909DF0030313131313131300089
:0909E80030303030303031300085
:0909F1003030303030303130007C
:0909FA0030303030303030300074
:090A030030313131313131300064
:090A0C003031303030303130005F
:090A150030313131313131300052
:090A1E003031303030303130004D
:090A270030313131313131300040
:090A300030313131313131300037
:090A390030303030303030300034
:090A42003030303030303030002B
:090A4B0030303030303131300020
:090A540030303030313031300017
:090A5D003030303130303130000E
:090A660030313131313131300001
:090A6F00303030303030303000FE
:090A7800303030303030303000F5
:090A8100303030303030303000EC
:090A8A00303030303030303000E3
:090A9300303131313131313000D4
:090A9C00303031313131313100CB
:090AA500303030303030313000C7
:090AAE00303030303030313000BE
:090AB700303030303030313000B5
:090AC000303130303030313000AB
:090AC900303130303030313000A2
:090AD20030313131313131300095
:090ADB003031313131313130008C
:090AE40030313030303030300088
:090AED003031313131313130007A
:090AF60030313030303030300076
:090AFF0030313131313131300068
:090B080030303030303031300063
:090B11003030303030303030005B
:090B1A0030303030303030300052
:090B230030313131313131300043
:070B2C004761696E3A2000E9
:020B33009F071A
:020B3500370B7C
:030B37000D0A00A4
:00000001FF
