:100000000203E00200000000000000020000000007
:1000100000000002000000000000000200000000DC
:0E0020000000000200000000000000020000CE
:10002E00BD000BB90029E88CF084F8ACF022E4CDC9
:10003E00FF75F008E828F8E933F9ED33FDE99CED9A
:10004E009F4005FDE99CF908D5F0E9E4C9FC22ECD6
:10005E00FFF5F0E98420D21CF9ACF075F008E82821
:10006E00F8EC33FC40079F5006D5F0F222C39FFCFC
:05007E0008D5F0EA22A4
:10008300852627A8270527E6600280F7C3E527957D
:0C00930026F8C3E89401F8E49400F92278
:10009F00AA20E523A8220A8006A2E713C813C8DA0C
:0900AF00F8F9530001530100228D
:0B00B800858620E4F521A820A9212264
:0400C30085208622EC
:0B00C70085209920990280FBC299223D
:1000D200C2D5ED30E709B2D5E4C39CFCE49DFDE94D
:1000E20030E715B2D5E4C398F8E499F912002EC3AB
:1000F200E49CFCE49DFD800312002E30D507C3E48E
:0601020098F8E499F922CF
:100108007521007522008520261183C3E89401F526
:1001180023E99400F524C3E5219523E5246480F8B8
:10012800E5226480985030E5202521F88625E520D1
:100138002523F9E7F6E5202523F8A62574012521CE
:10014800F52174003522F522C3E5239401F523E552
:08015800249400F52480BF226D
:10016000758780758922758840759850758DF575ED
:05017000B003D28E2255
:0401750075D55122C9
:08017900E493F608A3D9F92272
:1001810085031C751AC0751B00E51845197002809E
:100191004C74016518700474006519700E7408259B
:1001A1001AF51A7400351BF51B803274026518703C
:1001B1000474006519700E7410251AF51A7400354F
:1001C1001BF51B80187403651870047400651970A1
:1001D1000C7418251AF51A7400351BF51B851A8045
:1001E100C2A0851A20851B2111C3E5AA20E7028040
:1001F100F911B885001D75200075210011C3E5AA0C
:1002010020E70280F911B885001E752000752100D4
:1002110011C3E5AA20E70280F911B885001FD2A019
:100221007B03A81C791DE7F67A01C3EB9AFBE49BDB
:0D023100FC0809EB70F0851DA0851EA122C0
:10023E0085181D85191EC3E518940074006480F896
:10024E00E519648098500DC374009518F518740064
:10025E009519F519751B00751C00E51A251BF885F7
:10026E00001F7C0A7D00A818A91911D2A804A9059F
:10027E00743028F9A81FA6017401251BF51B740004
:10028E00351CF51C7C0A7D00A818A91911D2850011
:10029E0018850119D3E8940074006480FAE964802B
:1002AE009A50B7C3E51D940074006480F8E51E648F
:1002BE0080985013E51A251BF8762D7401251BF531
:1002CE001B7400351CF51CE51A251BF87600851AE3
:0402DE0020310822A1
:1002E200851819A819E6600AA819862011C70519E8
:0D02F20080F175200D11C775200A11C7227B
:1002FF00751900751A00751B00751C0075200075A7
:10030F002100A8188601850122E933E495E0F52341
:10031F00119FE51928F519E51A39F51A751B077597
:10032F001C00C3E51B940074006480F8E51C648016
:10033F009840417801E519088007C333C51A33C5C2
:10034F001AD8F7F519851B20851C21E5182401F80B
:10035F008622E633E495E0F523119FE51928F51978
:10036F00E51A39F51AC3E51B9401F51BE51C94003A
:10037F00F51C80AE751B07751C00C3E51B94057437
:10038F00006480F8E51C64809840417801E5190805
:10039F008007C333C51A33C51AD8F7F519851B2043
:1003AF00851C21E5182402F88622E633E495E0F552
:1003BF0023119FE51928F519E51A39F51AC3E51B1D
:1003CF009401F51BE51C9400F51C80AEA819A91A21
:0103DF0022FB
:1003E0007581801204AF31753160D2A0007518009C
:1003F0007519007B1531817B03A8087915E7F67A1A
:1004000001C3EB9AFBE49BFC0809EB70F0A808A67B
:100410001508A61685081851FF8500138501147567
:10042000183C51E2851318851419751A09513E7547
:10043000180951E27D077E567F3CDFFEDEFCDDFAC7
:100440007518017519007B1531817B03A808791592
:10045000E7F67A01C3EB9AFBE49BFC0809EB70F02A
:10046000A808A61508A61685081851FF850013854B
:10047000011475183051E2851318851419751A097D
:10048000513E75180951E27D077E567F3CDFFEDE46
:07049000FCDDFA61ED80FEC6
:0E04AF007830791875829775830412017922CE
:0C0497006368616E6E656C20312000000F
:0C04A3006368616E6E656C203020000004
:00000001FF
