:100000000209AB0200000000000000020000000036
:1000100000000002000000000000000200000000DC
:0E0020000000000200000000000000020000CE
:10002E003392D530D503120059EB334010E833F834
:10003E00E933F9EA33FAEB33FBD5F0ED22E5F024A0
:10004E007EA2D513CB92E7CAC9F822C3E498F8E48E
:09005E0099F9E49AFAE49BFB22F3
:10006700857E7FA87F057FE6600280F7C3E57F95E1
:0C0077007EF8C3E89401F8E49400F9223C
:10008300BD000BB90029E88CF084F8ACF022E4CD74
:10009300FF75F008E828F8E933F9ED33FDE99CED45
:1000A3009F4005FDE99CF908D5F0E9E4C9FC22EC81
:1000B300FFF5F0E98420D21CF9ACF075F008E828CC
:1000C300F8EC33FC40079F5006D5F0F222C39FFCA7
:0500D30008D5F0EA224F
:0B00D800852F9920990280FBC299221D
:1000E300C2D5ED30E709B2D5E4C39CFCE49DFDE93C
:1000F30030E715B2D5E4C398F8E499F9120083C345
:10010300E49CFCE49DFD800312008330D507C3E427
:0601130098F8E499F922BE
:1001190080030201F9EB5A046005EF5E04700302E3
:1001290001EF1201BA5F0460F6EB4F60F2EB700465
:10013900FAF9F822CF60DB2481CF5009C39F60020E
:1001490050060201F69F50CAF582EE2E4C4D7005FD
:10015900AC820201E575F0007B1A7F80C3E89CE957
:100169009DEA9E400DC3E89CF8E99DF9EA9EFAEFE5
:1001790042F0DB22ABF0D0E0F8D0E0F9D0E0FAAC05
:100189008220E7101CEC60BAEB2BFBE833F8E9336B
:10019900F9EA33FA8032EF03FF30E705C0F075F072
:1001A90000E828F8E933F9EA33FA40B930E7C380BF
:1001B900ABEED2E7CE33EF33FF92D5EAD2E7CA33BB
:1001C900EB33FB5002B2D522EB30E71008B8000C34
:1001D90009B900080ABA00040CEC60ECA2D5EC13CA
:1001E900FBEA92E7FA2274FFFBFAF9F822E480F8B5
:0C01F900A2D574FF13FB7A80E480EF2293
:10020500AA79E57CA87B0A8006A2E713C813C8DA99
:09021500F8F95300015301002225
:04021E008579862236
:10022200757900757A00852F7E1167C3E89401F510
:100232007BE99400F57CC3E579957BE57C6480F8E5
:10024200E57A6480985030E52F2579F8867DE52F90
:10025200257BF9E7F6E52F257BF8A67D7401257944
:10026200F5797400357AF57AC3E57B9401F57BE57F
:080272007C9400F57C80BF22A2
:10027A00EC600FE8C333F8E933F9EA33FAEB33FBFE
:03028A00DCF12282
:0B028D00858679E4F57AA879A97A2229
:1002980074F8CF6480CFCB6480CBF5820470028081
:1002A80043C3E89CF5F0E99D42F0EA9E42F0EB9FDB
:1002B80045F060305018E5825CFCE582F4285582F0
:1002C800F8502109B9001D0ABA00190B8016E582F9
:1002D80058F8E582F42C5582FC50090DBD00050E36
:1002E800BE00010FC3E89CF5F0E99D42F0EA9E428A
:1002F800F0EB9F45F06007CF4B20E701B3EF2222D8
:1003080085792FA82F052FA97A057AE7F6E66002E6
:0503180080F1A879222C
:10031D00EB4A6011EF4E7017EA33EB3304600DE4D6
:10032D00FBF8F9FA22EE33EF330470F8020456129B
:10033D0004215F046009E4CB248150062F5009028B
:10034D0004602F400302045DC0E0EC4D7044BE809C
:10035D0006D0E0FC02044CE849701CBA8008ECF8A9
:10036D00EDF9EEFA80EBEE8AF0A4F9E5F002040661
:10037D00EECAFEEDF9ECF8E88EF0A4FBE5F0C98EBF
:10038D00F0A429F8E435F0CA8EF0A42AF9E435F08A
:10039D008067E8497005BA80D780C3E88CF0A4ABBC
:1003AD00F0E98CF0A42BFBE435F0FFE88DF0A42BE5
:1003BD00E5F03FFBE433CC8AF0A42BFBE5F03CFFEA
:1003CD00E98DF0A42BFBE5F03FFFE433C88EF0A4DC
:1003DD002BFBE5F03FC83400C98EF0A428F8E5F0FA
:1003ED0039F9E433CE8AF0A429F9E5F03ECA8DF04F
:1003FD00A428F8E5F039F9E43AFA33D0E0FC5006D8
:10040D000CBC000E804DEB2BFBE833F8E933F9EA19
:10041D0033FA8017EED2E7CE33EF33FF92D5EAD21F
:10042D00E7CA33EB33FB5002B2D522EB30E71008AD
:10043D00B8000C09B900080ABA00040CEC6014A24B
:10044D00D5EC13FBEA92E7FA2274FFFBFAF9F822D6
:0F045D00E480F8A2D574FF13FB7A80E480EF22CD
:0F046C00AB01AA007900780075F010EB112E2279
:10047B0085031C751AC0751B00E5184519700280A1
:10048B004C74016518700474006519700E7408259E
:10049B001AF51A7400351BF51B803274026518703F
:1004AB000474006519700E7410251AF51A74003552
:1004BB001BF51B80187403651870047400651970A4
:1004CB000C7418251AF51A7400351BF51B851A8048
:1004DB00C2A0851A79851B7A511EE5AA20E70280F6
:1004EB00F9518D85001D757900757A00511EE5AAAD
:1004FB0020E70280F9518D85001E757900757A0011
:10050B00511EE5AA20E70280F9518D85001FD2A06C
:10051B007B03A81C791DE7F67A01C3EB9AFBE49BDE
:0D052B00FC0809EB70F0851DA0851EA122C3
:08053800E493F608A3D9F922AF
:0405400075D55122FA
:10054400758780758922758840759850758DF57505
:05055400B003D28E226D
:10055900851819A819E6600AA819862F11D805194E
:0305690080F122FC
:10056C00851819A819E6600AA819862F11D805193B
:0D057C0080F1752F0D11D8752F0A11D822AE
:1005890085181D85191EC3E518940074006480F848
:10059900E519648098500DC374009518F518740016
:1005A9009519F519751B00751C00E51A251BF885A9
:1005B900001F7C0A7D00A818A91911E3A804A90540
:1005C900743028F9A81FA6017401251BF51B7400B6
:1005D900351CF51C7C0A7D00A818A91911E38500B2
:1005E90018850119D3E8940074006480FAE96480DD
:1005F9009A50B7C3E51D940074006480F8E51E6441
:1006090080985013E51A251BF8762D7401251BF5E2
:100619001B7400351CF51CE51A251BF87600851A94
:040629002F51222209
:10062D00751900751A00751B00751C00757900751C
:10063D007A00A818860185017BE933E495E0F57C05
:10064D005105E51928F519E51A39F51A751B0775C0
:10065D001C00C3E51B940074006480F8E51C6480E5
:10066D009840417801E519088007C333C51A33C591
:10067D001AD8F7F519851B79851C7AE5182401F828
:10068D00867BE633E495E0F57C5105E51928F519EF
:10069D00E51A39F51AC3E51B9401F51BE51C940009
:1006AD00F51C80AE751B07751C00C3E51B94057406
:1006BD00006480F8E51C64809840417801E51908D4
:1006CD008007C333C51A33C51AD8F7F519851B79B9
:1006DD00851C7AE5182402F8867BE633E495E0F56F
:1006ED007C5105E51928F519E51A39F51AC3E51BED
:1006FD009401F51BE51C9400F51C80AEA819A91AF0
:01070D0022C9
:10070E00A818A919916C7C6F7D127E8375074071B4
:0D071E001D7C007D007E807507453119228D
:10072B0075270075280085182B85192C851A2D85A2
:10073B001B2EE52B64FF7010E52C64FF700AE52D72
:10074B0064FF7004E52E64FF7017851C79751D4ED0
:10075B00751E61751F4E752000757A1D7108780323
:10076B0022752901E52E54806010E52E6480F885F2
:10077B00002E0529A81C762D051CE52B452C452D97
:10078B00452E7011851C79752130752200757A21E3
:10079B007108780022E52B64007010E52C64007062
:1007AB000AE52D64807004E52E647F7017851C7933
:1007BB0075234975244E752546752600757A237168
:1007CB0008A82922C37C007D007E8075073FA82BDB
:1007DB00A92CAA2DAB2E51984004780080027801E9
:1007EB00E86024A82BA92CAA2DAB2E7C007D007EC3
:1007FB002075074112031D85002B85012C85022DC9
:10080B0085032E152880BDC37C007D007E207507D7
:10081B0041A82BA92CAA2DAB2E12029850047800BC
:10082B0080027801E86024A82BA92CAA2DAB2E7C82
:10083B00CD7DCC7ECC75073D12031D85002B85012C
:10084B002C85022D85032E052880BC7C01A82BA9A5
:10085B002CAA2DAB2E12027A85002B85012C85023A
:10086B002D85032EC3E52E947FF885002A752E0166
:10087B00AC00A82BA92CAA2DAB2E12027A85002B2B
:10088B0085012C85022D85032E7430252EF9A81C8D
:10089B00A601051CC374016480F8E52864809840A8
:1008AB000FD374066480F8E52864809850028009A1
:1008BB00A81C762E051C752701752A06E52A7002E1
:1008CB002134752E007C02A82BA92CAA2DAB2E123D
:1008DB00027AE52B28F8E52C39F9E52D3AFAE52EC5
:1008EB003BFB85002B85012C85022D85032E7C017E
:1008FB00A82BA92CAA2DAB2E12027A85002B8501D1
:10090B002C85022D85032E7430252EF9A81CA601EB
:10091B00051CE527700F1528E5287009A81C762EF5
:10092B00051C752701152A01C7E51C24FFF8860154
:10093B00E964307004151C80F0E51C24FFF8860177
:10094B00E9642E7002151CE528604EA81C7665051F
:10095B001CC374006480F8E528648098500DA81CB3
:10096B00762D051CC374009528F52885282AD3E518
:10097B00289409401175F00AE52A84F8743028F997
:10098B00A81CA601051C75F00AE52A84E5F0F8748D
:10099B003028F9A81CA601051CA81C76007800229B
:1009AB00758180120B35120540120544D2A00075DB
:1009BB0018007519007B1512047B7B03A8087915A9
:1009CB00E7F67A01C3EB9AFBE49BFC0809EB70F0AA
:1009DB00A808A61508A61685081812062D85000F5F
:1009EB0085011085001885011912070E85001185E8
:1009FB00011285021385031475183012056C850FCF
:100A0B0018851019751A0912058975186C12055974
:100A1B0075180912056C85111885121985131A851D
:100A2B00141B751C0912072B7518541205597518D0
:100A3B000912056C7D077E567F3CDFFEDEFCDDFA7E
:100A4B007518017519007B1512047B7B03A80879B7
:100A5B0015E7F67A01C3EB9AFBE49BFC0809EB70F4
:100A6B00F0A808A61508A61685081812062D8500ED
:100A7B000F85011085001885011912070E850011CD
:100A8B0085011285021385031475186012056C8598
:100A9B000F18851019751A0912058975183B12055F
:100AAB005975180912056C85111885121985131AB9
:100ABB0085141B751C0912072B75184812055975DF
:100ACB00180912056C7D077E567F3CDFFEDEFCDDD0
:050ADB00FA21BA80FEC3
:0E0B3500783079497582E075830A12053822FE
:0B0AE0006368616E6E656C20300000E2
:0D0AEB0041444320726573756C743A20001D
:0C0AF80041444320696E7075743A200080
:0C0B040041444320696E7075743A200073
:0C0B10006368616E6E656C20312000008F
:0D0B1C0041444320726573756C743A2000EB
:040B29004E614E00CB
:020B2D00300096
:040B2F00494E4600E5
:010B330000C1
:010B340000C0
:00000001FF
