:100000000205D9020000000000000002000000000C
:1000100000000002000000000000000200000000DC
:0E0020000000000200000000000000020000CE
:10002E00BD000BB90029E88CF084F8ACF022E4CDC9
:10003E00FF75F008E828F8E933F9ED33FDE99CED9A
:10004E009F4005FDE99CF908D5F0E9E4C9FC22ECD6
:10005E00FFF5F0E98420D21CF9ACF075F008E82821
:10006E00F8EC33FC40079F5006D5F0F222C39FFCFC
:05007E0008D5F0EA22A4
:10008300C2A6C2A4C2A574C02530F874003531F9E4
:0C009300850030850131850080D2A62256
:10009F00C2D5ED30E709B2D5E4C39CFCE49DFDE980
:1000AF0030E715B2D5E4C398F8E499F912002EC3DE
:1000BF00E49CFCE49DFD800312002E30D507C3E4C1
:0600CF0098F8E499F92203
:1000D500C2A6C2A4C2A574B82530F874003531F99A
:0C00E500850030850131850080D2A62204
:1000F100C2A6C2A4C2A574402530F874003531F9F6
:0C010100850030850131850080D2A622E7
:0C010D00C2A6D2A4C2A5853080D2A622D2
:10011900752800752900752A00752B00752C017545
:100129002D007806E52385222E088008A2E713C54D
:100139002E13C52ED8F6F52F7401652670047400A8
:1001490065277006752C00752D007803E525852433
:1001590030088008A2E713C53013C530D8F6F53149
:1001690011D5E52E452F700EC2A2D2A38522308566
:10017900233111F1801AD2A2C2A37C407D00A822AA
:10018900A923119FA804A90585003085013111F122
:1001990075300075310011837C087D00A824A925DC
:1001A900119FA804A90585002A85012B75280075CA
:1001B9002900C3E52A9401F9E52B9400FAC3E5283F
:1001C90099EA6480F8E52964809850207801E52C43
:1001D900088007C333C52D33C52DD8F7F52C740115
:1001E9002528F52874003529F52980C6D3E52494F6
:1001F9000074006480F8E52564809840127801E570
:100209002C088007C333C52D33C52DD8F7F52C85A8
:100219002C30310D7D077E567F3CDFFEDEFCDDFA9A
:03022900C2A62248
:10022C00C3E522940074006480F8E5236480985040
:10023C000CC374009522F874009523F922A822A906
:02024C0023226B
:10024E007806E523852228088008A2E713C528131F
:10025E00C528D8F6F5297803E525852430088008C9
:10026E00A2E713C53013C530D8F6F53111D5E52800
:10027E004529700EC2A2D2A385223085233111F1F9
:10028E00801AD2A2C2A37C407D00A822A923119F6E
:10029E00A804A90585003085013111F1753000756E
:0C02AE0031001183852630310DC2A622DC
:1002BA00E88CF0A4AFF0C88DF0A42FC98CF0A42963
:0202CA00F92217
:1002CC00758780758922758840759850758DF57580
:0502DC00B003D28E22E8
:0802E100E493F608A3D9F92209
:0402E90075D5532252
:0E02ED00D2A6C2A4C2A575803FC2A2C2A3229F
:1002FB00750A00750B00750CFF750D007806E50986
:10030B0085080E088008A2E713C50E13C50ED8F694
:10031B00F50F750A00750B00C3E50A9408740064A9
:10032B0080F8E50B6480985051E50E450F700EC2B6
:10033B00A2D2A385083085093111F1801AD2A2C24D
:10034B00A37C407D00A808A909119FA804A90585D5
:10035B00003085013111F1850A30850B3111D575CE
:10036B0030007531001183850C30310D7401250A75
:0D037B00F50A7400350BF50B809EC2A6221A
:10038800751000751100C3E50E950AF8E50F950B79
:10039800F9850012850113C3E508950CF514E509E4
:1003A800950DF515850022850123512C85002085A2
:1003B8000121851422851523512CD3E52098E96461
:1003C80080FAE52164809A40087516017517008047
:1003D800067516FF7517FFC3E51294007400648054
:1003E800F8E51364809850087518FF7519FF8006A2
:1003F800751801751900C3E514940074006480F839
:10040800E5156480985008751AFF751BFF800675FE
:100418001A01751B00850822850923850A24850B86
:1004280025752600752700311985081C85091D8545
:100438000A1E850B1F74FF6516700474FF6517602C
:100448000281D6A812A913AC18AD1951BAE5102823
:10045800FAE51139FB850210850311D3EA9400747B
:10046800006480F8EB6480984021A814A915AC1AA0
:10047800AD1B51BAC3E51098F510E51199F511E5D2
:100488001E2518F51EE51F3519F51FC3E51C951A1D
:10049800F8E51D951BF985001C85011D8500228541
:1004A8000123851E24851F2575260075270031190F
:1004B800E51C650C7004E51D650D6002814BE51EA9
:1004C800650E7004E51F650F6002814BA15FA814DB
:1004D800A915AC1AAD1B51BAE51028FAE51139FB7C
:1004E800850210850311D3EA940074006480F8EB48
:1004F8006480984022A812A913AC18AD1951BAC348
:10050800E51098F510E51199F511C3E51C951AF554
:100518001CE51D951BF51DE51E2518F8E51F351969
:10052800F985001E85011F851C22851D2385002451
:100538008501257526007527003119E51C650C70A5
:1005480004E51D650D600281D6E51E650E7004E5A3
:080558001F650F600281D6222D
:10056000C3E508950AE50B6480F8E50964809840C6
:100570000578FF79FF2285080C85090DC3E50C95E8
:100580000AE50B6480F8E50D6480985047750E000D
:10059000750F00D3E50E944074006480F8E50F6495
:1005A00080985022850C22850D23850E24850F25E9
:1005B000752600752700514E7408250EF50E74003F
:1005C000350FF50F80CD7401250CF50C7400350D39
:0905D000F50D80A87800790022E5
:1005D90075818051E951CCD2A00051ED75080075A3
:1005E9000900750A80750B00B16075085C75090012
:1005F90051FB7522017523007524017525007526A7
:100609000075270031197522017523007524287595
:10061900250075260075270031197508017509002F
:10062900750A01750B00750C01750D00750E28759D
:080639000F00718880BC80FEF7
:0D06410041444320726573756C743A2000CB
:0C064E0041444320696E7075743A20002E
:0A065A006368616E6E656C2031006C
:0A0664006368616E6E656C20300063
:07066E004761696E3A2000AC
:030675000D0A006B
:00000001FF
