:100000000205A40200000000000000020000000041
:1000100000000002000000000000000200000000DC
:0E0020000000000200000000000000020000CE
:10002E00BD000BB90029E88CF084F8ACF022E4CDC9
:10003E00FF75F008E828F8E933F9ED33FDE99CED9A
:10004E009F4005FDE99CF908D5F0E9E4C9FC22ECD6
:10005E00FFF5F0E98420D21CF9ACF075F008E82821
:10006E00F8EC33FC40079F5006D5F0F222C39FFCFC
:05007E0008D5F0EA22A4
:10008300C2A6C2A4C2A574C0253BF87400353CF9CE
:0C00930085003B85013C850080D2A62240
:10009F00C2D5ED30E709B2D5E4C39CFCE49DFDE980
:1000AF0030E715B2D5E4C398F8E499F912002EC3DE
:1000BF00E49CFCE49DFD800312002E30D507C3E4C1
:0600CF0098F8E499F92203
:1000D500C2A6C2A4C2A574B8253BF87400353CF984
:0C00E50085003B85013C850080D2A622EE
:1000F100C2A6C2A4C2A57440253BF87400353CF9E0
:0C01010085003B85013C850080D2A622D1
:0C010D00C2A6D2A4C2A5853B80D2A622C7
:10011900C3E52D940074006480F8E52E648098503E
:100129000CC37400952DF87400952EF922A82DA9F9
:020139002E2274
:10013B007806E52E852D33088008A2E713C5331307
:10014B00C533D8F6F5347803E530852F3B088008A6
:10015B00A2E713C53B13C53BD8F6F53C11D5E533E8
:10016B004534700EC2A2D2A3852D3B852E3C11F1D6
:10017B00801AD2A2C2A37C407D00A82DA92E119F6C
:10018B00A804A90585003B85013C11F1753B007561
:0C019B003C00118385313B310DC2A622CF
:1001A7007533007534007535007536007537017580
:1001B70038007806E52E852D39088008A2E713C593
:1001C7003913C539D8F6F53A7401653170047400EE
:1001D700653270067537007538007803E530852F6E
:1001E7003B088008A2E713C53B13C53BD8F6F53C8F
:1001F70011D5E539453A700EC2A2D2A3852D3B85AC
:100207002E3C11F1801AD2A2C2A37C407D00A82DFA
:10021700A92E119FA804A90585003B85013C11F172
:10022700753B00753C0011837C087D00A82FA93021
:10023700119FA804A905850035850136753300751A
:100247003400C3E5359401F9E5369400FAC3E53384
:1002570099EA6480F8E53464809850207801E5379E
:10026700088007C333C53833C538D8F7F537740165
:100277002533F53374003534F53480C6D3E52F9430
:100287000074006480F8E53064809840127801E5D6
:1002970037088007C333C53833C538D8F7F53785EE
:0702A700373B310DC2A62216
:1002AE00E88CF0A4AFF0C88DF0A42FC98CF0A4296F
:0202BE00F92223
:0E02C000D2A6C2A4C2A575803FC2A2C2A322CC
:0402CE0075D553226D
:0802D200E493F608A3D9F92218
:1002DA00751B00751C00C3E5199515F8E51A9516E6
:1002EA00F985001D85011EC3E5139517F51FE51451
:1002FA009518F52085002D85012E311985002B854D
:10030A00012C851F2D85202E3119D3E52B98E96400
:10031A0080FAE52C64809A400875210175220080D4
:10032A00067521FF7522FFC3E51D940074006480E1
:10033A00F8E51E64809850087523FF7524FF80062F
:10034A00752301752400C3E51F940074006480F8C6
:10035A00E52064809850087525FF7526FF8006758C
:10036A00250175260085132D85142E85152F8516D2
:10037A003075310075320031A78513278514288519
:10038A00152985162A74FF6521700474FF65226099
:10039A00028128A81DA91EAC23AD2451AEE51B2855
:1003AA00FAE51C39FB85021B85031CD3EA94007409
:1003BA00006480F8EB6480984021A81FA920AC252E
:1003CA00AD2651AEC3E51B98F51BE51C99F51CE556
:1003DA00292523F529E52A3524F52AC3E527952574
:1003EA00F8E5289526F985002785012885002D85B9
:1003FA00012E85292F852A3075310075320031A7E3
:10040A00E52765177004E52865186002619DE529EE
:10041A0065197004E52A651A6002619D81B1A81FF9
:10042A00A920AC25AD2651AEE51B28FAE51C39FBFF
:10043A0085021B85031CD3EA940074006480F8EBE0
:10044A006480984022A81DA91EAC23AD2451AEC3D6
:10045A00E51B98F51BE51C99F51CC3E5279525F5C1
:10046A0027E5289526F528E5292523F8E52A3524C0
:10047A00F985002985012A85272D85282E85002FB3
:10048A0085013075310075320031A7E5276517708F
:10049A0004E528651860028128E52965197004E5D4
:0804AA002A651A600281282274
:1004B200C2A07586C0E5AA20E70280F985860A7582
:1004C2008600E5AA20E70280F9858609758600E59F
:1004D200AA20E70280F9858608D2A0530A015308B0
:1004E200E0A80AA909AA087B05E813F8E913F9EAC2
:1004F20013FAEB14FB70F5880A89098A08AB097AAA
:10050200007C00A808E50833E495E0F9E82AFCE954
:100512003BFD7A06EDA8040A8006A2E713C813C8B9
:09052200DAF8F9C3744098F822DC
:10052B00C3E5139515E5166480F8E51464809840CF
:10053B000578FF79FF22851317851418C3E51795E6
:10054B0015E5166480F8E518648098504775190016
:10055B00751A00D3E519944074006480F8E51A64A9
:10056B008098502285172D85182E85192F851A30C6
:10057B00753100753200313B74082519F51974007B
:10058B00351AF51A80CD74012517F5177400351837
:09059B00F51880A878007900220F
:1005A40075813D750B00750C00750D00750E007599
:1005B4000F0075100051CED2A00051C07513007504
:1005C4001400751580751600B12BC3E50C9480508A
:1005D40023D3E5B092E1F5B07480250CF8850012C0
:1005E40091B2850011A812A611050CC3E5B092E1E1
:1005F400F5B0C181750C00C3E50C94805062748021
:10060400250CF8860185010BC3E99401F50BE50C73
:100614007013850C0DE4F50E850B0FE50B33E49593
:10062400E0F5108037D3E50C94004030850D138538
:100634000E14850F15851016850C17E4F518850B17
:1006440019E50B33E495E0F51A51DA850C0DE4F560
:100654000E850B0FE50B33E495E0F510050C809740
:100664007D047E2B7F9DDFFEDEFCDDFA750C0075BC
:100674001300751400751580751600B12BA1CE807A
:01068400FE77
:00000001FF
