:100000000205E902000000000000000200000000FC
:1000100000000002000000000000000200000000DC
:0E0020000000000200000000000000020000CE
:10002E00BD000BB90029E88CF084F8ACF022E4CDC9
:10003E00FF75F008E828F8E933F9ED33FDE99CED9A
:10004E009F4005FDE99CF908D5F0E9E4C9FC22ECD6
:10005E00FFF5F0E98420D21CF9ACF075F008E82821
:10006E00F8EC33FC40079F5006D5F0F222C39FFCFC
:05007E0008D5F0EA22A4
:10008300C2A6C2A4C2A574C0252CF87400352DF9EC
:0C00930085002C85012D850080D2A6225E
:0C009F00C2A6D2A4C2A5852C80D2A62245
:1000AB00C2A6C2A4C2A574B8252CF87400352DF9CC
:0C00BB0085002C85012D850080D2A62236
:1000C700C2A6C2A4C2A57440252CF87400352DF928
:0C00D70085002C85012D850080D2A6221A
:1000E300C2D5ED30E709B2D5E4C39CFCE49DFDE93C
:1000F30030E715B2D5E4C398F8E499F912002EC39A
:10010300E49CFCE49DFD800312002E30D507C3E47C
:0601130098F8E499F922BE
:0B011900858624E4F525A824A92522F2
:10012400EF88F0A4CB8CF0A42BFBEE89F0A42BFB7E
:100134008DF0EAA42BFBED89F0A4CAAFF08CF0A4F7
:100144002ACB3F25F0FAEE88F0A42BCA35F0FBEC5D
:1001540089F0A4F9AEF0EC88F0A4C8C5F029CA3E31
:0F016400F9E43BFBEDA42AC935F0FAE43BFB229A
:10017300EC600FEBC313FBEA13FAE913F9E813F886
:03018300DCF1228A
:040186008524862224
:10018A00AA24E527A8260A8006A2E713C813C8DA14
:09019A00F8F953000153010022A1
:1001A3007806E52585242A088008A2E713C52A13C3
:1001B300C52AD8F6F52B7803E52785262C08800871
:1001C300A2E713C52C13C52CD8F6F52D11ABE52AE0
:1001D300452B700EC2A2D2A385242C85252D11C7D1
:1001E300801AD2A2C2A37C407D00A824A92511E3D2
:1001F300A804A90585002C85012D11C7752C007550
:0C0203002D00118385282C119FC2A6221B
:0E020F00D2A6C2A4C2A575803FC2A2C2A3227D
:10021D00C3E5169518E5196480F8E51764809840D4
:10022D000578FF79FF2285161A85171BC3E51A95E8
:10023D0018E5196480F8E51B6480985047751C001B
:10024D00751D00D3E51C944074006480F8E51D64B1
:10025D0080985022851A24851B25851C26851D27EF
:10026D0075280075290031A37408251CF51C740030
:10027D00351DF51D80CD7401251AF51A7400351B39
:09028D00F51B80A878007900221D
:08029600E493F608A3D9F92254
:04029E0075D553229D
:1002A20085031A7518C0751900E516451770028086
:1002B2004C74016516700474006517700E7408257D
:1002C20018F51874003519F5198032740265167024
:1002D2000474006517700E74102518F51874003533
:1002E20019F5198018740365167004740065177087
:1002F2000C74182518F51874003519F5198518802D
:10030200C2A08518248519253186E5AA20E7028036
:10031200F9311985001B7524007525003186E5AA7F
:1003220020E70280F9311985001C7524007525002B
:100332003186E5AA20E70280F9311985001DD2A095
:100342007B03A81A791BE7F67A01C3EB9AFBE49BBD
:0D035200FC0809EB70F0851BA0851CA122A2
:10035F00751841751903751A00751B0078417903DB
:10036F007A007B00AC16AD17E4FEE4F50731248567
:10037F00001885011985021A85031B7C05317385C9
:10038F00001885011985021A85031BD3E89408E923
:10039F009400EA9400EB9400401BC3E5189408F511
:1003AF0018E5199400F519E51A9400F51AE51B9450
:1003BF0000F51B800C751800751900751A00751B58
:1003CF0000E5184519451A451B6026C3E518940129
:1003DF00F518E5199400F519E51A9400F51AE51BBF
:1003EF009400F51B000000000000000000000080DA
:0203FF00D0220A
:10040100751700751800751900751A0075240075A7
:100411002500A8168601850126E933E495E0F52734
:10042100318AE51728F517E51839F5187519077593
:100431001A00C3E519940074006480F8E51A648019
:100441009840417801E517088007C333C51833C5C3
:1004510018D8F7F517851924851A25E5162401F80A
:100461008626E633E495E0F527318AE51728F51766
:10047100E51839F518C3E5199401F519E51A940041
:10048100F51A80AE751907751A00C3E5199405743C
:10049100006480F8E51A64809840417801E5170806
:1004A1008007C333C51833C518D8F7F51785192444
:1004B100851A25E5162402F88626E633E495E0F54B
:1004C10027318AE51728F517E51839F518C3E51915
:1004D1009401F519E51A9400F51A80AEA817A91828
:0104E10022F8
:1004E200751C00751D00751E00751F0075200175B5
:1004F20021007806E517851622088008A2E713C5B1
:100502002213C522D8F6F5237401651A700474000B
:10051200651B70067520007521007803E5198518A2
:100522002C088008A2E713C52C13C52CD8F6F52D8C
:1005320011ABE5224523700EC2A2D2A385162C85EB
:10054200172D11C7801AD2A2C2A37C407D00A81623
:10055200A91711E3A804A90585002C85012D11C74F
:10056200752C00752D0011837C087D00A818A9192F
:1005720011E3A804A90585001E85011F751C0075DD
:100582001D00C3E51E9401F9E51F9400FAC3E51CA2
:1005920099EA6480F8E51D64809850207801E5208E
:1005A200088007C333C52133C521D8F7F52074016C
:1005B200251CF51C7400351DF51D80C6D3E5189465
:1005C2000074006480F8E51964809840127801E5AF
:1005D20020088007C333C52133C521D8F7F520850C
:0705E200202C119FC2A6228C
:1005E9007581807582B67583077809790A5196D223
:1005F900A075B00000519E510F7516007517007552
:100609001880751900511D7401650F700474006517
:10061900107046747F650970047400650A703AE5C4
:10062900B030E22874FF6511700474FF651270140C
:10063900E50F45107008750F017510008006750FDC
:1006490000751000751100751200800BE5B020E2ED
:10065900067511FF7512FF80AE7516007517007BC0
:100669001351A27B03A8087913E7F67A01C3EB9A21
:10067900FBE49BFC0809EB70F0A808A61308A61474
:1006890085081691017C06E9AA000C8006A2E713E9
:10069900CA13CADCF8FBC374409AF51874009BF5B9
:1006A90019C3E5189401F518E5199400F519850998
:1006B90016850A17751A00751B0091E27401250940
:1006C900F5097400350AF50A748065097004740027
:1006D900650A7014750900750A007516007517000A
:1006E900751880751900511DE5B030E22874FF6551
:1006F90011700474FF65127014E50F4510700875C8
:100709000F017510008006750F0075100075110036
:10071900751200800BE5B020E2067511FF7512FF16
:10072900E5B030E02074FF650D700474FF650E704C
:100739000C7401250BF50B7400350CF50C750D00C7
:10074900750E00805CE5B020E00DE5B020E108758C
:100759000DFF750EFF804AE5B030E13274FF650D7B
:10076900700474FF650E701ED3E50B940074006469
:1007790080F8E50C648098400DC3E50B9401F50BF6
:10078900E50C9400F50C750D00750E008013E5B0AD
:1007990020E108750DFF750EFF8006750DFF750EBA
:0D07A900FF850B16850C17715FC11080FED7
:0207B600000041
:0207B80001003E
:0207BA00FFFF3F
:0207BC0000003B
:0207BE00FFFF3B
:00000001FF
