:100000000203ED02000000000000000200000000FA
:1000100000000002000000000000000200000000DC
:0E0020000000000200000000000000020000CE
:10002E00BD000BB90029E88CF084F8ACF022E4CDC9
:10003E00FF75F008E828F8E933F9ED33FDE99CED9A
:10004E009F4005FDE99CF908D5F0E9E4C9FC22ECD6
:10005E00FFF5F0E98420D21CF9ACF075F008E82821
:10006E00F8EC33FC40079F5006D5F0F222C39FFCFC
:05007E0008D5F0EA22A4
:10008300C2D5ED30E709B2D5E4C39CFCE49DFDE99C
:1000930030E715B2D5E4C398F8E499F912002EC3FA
:1000A300E49CFCE49DFD800312002E30D507C3E4DD
:0600B30098F8E499F9221F
:1000B900C2A6C2A4C2A574B8252AF87400352BF9C2
:0C00C90085002A85012B850080D2A6222C
:1000D500C2A6C2A4C2A57440252AF87400352BF91E
:0C00E50085002A85012B850080D2A62210
:0C00F100C2A6D2A4C2A5852A80D2A622F5
:1000FD00C2A6C2A4C2A574C0252AF87400352BF976
:0C010D0085002A85012B850080D2A622E7
:10011900C3E51C940074006480F8E51D6480985060
:100129000CC37400951CF87400951DF922A81CA92C
:020139001D2285
:10013B007522007523007524007525007526017541
:10014B0027007806E51D851C28088008A2E713C543
:10015B002813C528D8F6F52974016520700474009E
:10016B00652170067526007527007803E51F851E2F
:10017B002A088008A2E713C52A13C52AD8F6F52B3F
:10018B0011B9E5284529700EC2A2D2A3851C2A8578
:10019B001D2B11D5801AD2A2C2A37C407D00A81CB6
:1001AB00A91D1183A804A90585002A85012B11D54A
:1001BB00752A00752B0011FD7C087D00A81EA91F58
:1001CB001183A804A90585002485012575220075D6
:1001DB002300C3E5249401F9E5259400FAC3E52235
:1001EB0099EA6480F8E52364809850207801E5262D
:1001FB00088007C333C52733C527D8F7F526740105
:10020B002522F52274003523F52380C6D3E51E94F1
:10021B000074006480F8E51F64809840127801E553
:10022B0026088007C333C52733C527D8F7F526859E
:07023B00262A11F1C2A622E0
:10024200758780758922758840759850758DF5750A
:05025200B003D28E2272
:0402570075D55122E6
:08025B00E493F608A3D9F9228F
:10026300C3E50A9508F51CE50B9509F51D311985BC
:100273000010850111C3E50E950CF51CE50F950DD6
:10028300F51D3119751200751300850014850115CC
:10029300850C16850D17C3E50E950CF9E50F950D25
:1002A300FA850118850219D3E9940074006480F873
:1002B300EA6480984006751801751900C3E518941F
:1002C3000074006480F8E51964809850067518FF7F
:1002D3007519FF85081A85091BC3E51A950AE50BED
:1002E3006480F8E51B64809840026165851A1C856B
:1002F3001B1D85161E85171F752000752100313BB8
:100303007D077E567F3CDFFEDEFCDDFAE512251419
:10031300FBE5133515FC8503128504137801AA0444
:10032300EB088005C333CA33CAD8F9F9C3E995107A
:10033300E5116480F8EA6480984019E5162518F5FC
:1003430016E5173519F517C3E5129510F512E513E0
:100353009511F5137401251AF51A7400351BF51B55
:0303630041DC2258
:10036600C3E508950AE50B6480F8E50964809840C2
:100376000578FF79FF2285080C85090DC3E50C95E4
:100386000AE50B6480F8E50D6480985047750E0009
:10039600750F00D3E50E944074006480F8E50F6491
:1003A60080985022850C1C850D1D850E1E850F1FFD
:1003B600752001752100313B7408250EF50E740079
:1003C600350FF50F80CD7401250CF50C7400350D35
:0903D600F50D80A87800790022E1
:0E03DF00D2A6C2A4C2A575803FC2A2C2A322AC
:1003ED0075818051575142D2A00071DF750800759B
:1003FD000900750A80750B007166751C01751D006D
:10040D00751E01751F00752000752100313B751C8F
:10041D000A751D00751E0A751F00752000752100D7
:10042D00313B750801750900750A0A750B00750CCD
:10043D0001750D00750E0B750F00516380FE80FE6A
:0D044D0041444320726573756C743A2000C1
:0C045A0041444320696E7075743A200024
:0A0466006368616E6E656C20310062
:0A0470006368616E6E656C20300059
:07047A004761696E3A2000A2
:030481000D0A0061
:00000001FF
