:100000000209AB0200000000000000020000000036
:1000100000000002000000000000000200000000DC
:0E0020000000000200000000000000020000CE
:10002E003392D530D503120059EB334010E833F834
:10003E00E933F9EA33FAEB33FBD5F0ED22E5F024A0
:10004E007EA2D513CB92E7CAC9F822C3E498F8E48E
:09005E0099F9E49AFAE49BFB22F3
:10006700855F60A8600560E6600280F7C3E560957C
:0C0077005FF8C3E89401F8E49400F9225B
:10008300BD000BB90029E88CF084F8ACF022E4CD74
:10009300FF75F008E828F8E933F9ED33FDE99CED45
:1000A3009F4005FDE99CF908D5F0E9E4C9FC22EC81
:1000B300FFF5F0E98420D21CF9ACF075F008E828CC
:1000C300F8EC33FC40079F5006D5F0F222C39FFCA7
:0500D30008D5F0EA224F
:0B00D80085599920990280FBC29922F3
:1000E300C2D5ED30E709B2D5E4C39CFCE49DFDE93C
:1000F30030E715B2D5E4C398F8E499F9120083C345
:10010300E49CFCE49DFD800312008330D507C3E427
:0601130098F8E499F922BE
:1001190080030201F9EB5A046005EF5E04700302E3
:1001290001EF1201BA5F0460F6EB4F60F2EB700465
:10013900FAF9F822CF60DB2481CF5009C39F60020E
:1001490050060201F69F50CAF582EE2E4C4D7005FD
:10015900AC820201E575F0007B1A7F80C3E89CE957
:100169009DEA9E400DC3E89CF8E99DF9EA9EFAEFE5
:1001790042F0DB22ABF0D0E0F8D0E0F9D0E0FAAC05
:100189008220E7101CEC60BAEB2BFBE833F8E9336B
:10019900F9EA33FA8032EF03FF30E705C0F075F072
:1001A90000E828F8E933F9EA33FA40B930E7C380BF
:1001B900ABEED2E7CE33EF33FF92D5EAD2E7CA33BB
:1001C900EB33FB5002B2D522EB30E71008B8000C34
:1001D90009B900080ABA00040CEC60ECA2D5EC13CA
:1001E900FBEA92E7FA2274FFFBFAF9F822E480F8B5
:0C01F900A2D574FF13FB7A80E480EF2293
:10020500AA59E55CA85B0A8006A2E713C813C8DAF9
:09021500F8F95300015301002225
:04021E008559862256
:10022200755A00755B0085595F1167C3E89401F543
:100232005CE99400F55DC3E55A955CE55D6480F880
:10024200E55B6480985030E559255AF8865EE55999
:10025200255CF9E7F6E559255CF8A65E7401255A96
:10026200F55A7400355BF55BC3E55C9401F55CE51A
:080272005D9400F55D80BF22E0
:10027A00EC600FE8C333F8E933F9EA33FAEB33FBFE
:03028A00DCF12282
:0B028D00858659E4F55AA859A95A22A9
:1002980074F8CF6480CFCB6480CBF5820470028081
:1002A80043C3E89CF5F0E99D42F0EA9E42F0EB9FDB
:1002B80045F060305018E5825CFCE582F4285582F0
:1002C800F8502109B9001D0ABA00190B8016E582F9
:1002D80058F8E582F42C5582FC50090DBD00050E36
:1002E800BE00010FC3E89CF5F0E99D42F0EA9E428A
:1002F800F0EB9F45F06007CF4B20E701B3EF2222D8
:1003080085595BA85B055BA95A055AE7F6E66002C2
:0503180080F1A859224C
:10031D00EB4A6011EF4E7017EA33EB3304600DE4D6
:10032D00FBF8F9FA22EE33EF330470F8020456129B
:10033D0004215F046009E4CB248150062F5009028B
:10034D0004602F400302045DC0E0EC4D7044BE809C
:10035D0006D0E0FC02044CE849701CBA8008ECF8A9
:10036D00EDF9EEFA80EBEE8AF0A4F9E5F002040661
:10037D00EECAFEEDF9ECF8E88EF0A4FBE5F0C98EBF
:10038D00F0A429F8E435F0CA8EF0A42AF9E435F08A
:10039D008067E8497005BA80D780C3E88CF0A4ABBC
:1003AD00F0E98CF0A42BFBE435F0FFE88DF0A42BE5
:1003BD00E5F03FFBE433CC8AF0A42BFBE5F03CFFEA
:1003CD00E98DF0A42BFBE5F03FFFE433C88EF0A4DC
:1003DD002BFBE5F03FC83400C98EF0A428F8E5F0FA
:1003ED0039F9E433CE8AF0A429F9E5F03ECA8DF04F
:1003FD00A428F8E5F039F9E43AFA33D0E0FC5006D8
:10040D000CBC000E804DEB2BFBE833F8E933F9EA19
:10041D0033FA8017EED2E7CE33EF33FF92D5EAD21F
:10042D00E7CA33EB33FB5002B2D522EB30E71008AD
:10043D00B8000C09B900080ABA00040CEC6014A24B
:10044D00D5EC13FBEA92E7FA2274FFFBFAF9F822D6
:0F045D00E480F8A2D574FF13FB7A80E480EF22CD
:0F046C00AB01AA007900780075F010EB112E2279
:10047B008503227520C0752100E51E451F70028083
:10048B004C7401651E70047400651F700E74082592
:10049B0020F52074003521F52180327402651E7021
:1004AB00047400651F700E74102520F52074003540
:1004BB0021F52180187403651E70047400651F708C
:1004CB000C74182520F52074003521F5218520802A
:1004DB00C2A085205985215A511EE5AA20E702802A
:1004EB00F9518D850023755900755A00511EE5AAE7
:1004FB0020E70280F9518D850024755900755A004B
:10050B00511EE5AA20E70280F9518D850025D2A066
:10051B007B03A8227923E7F67A01C3EB9AFBE49BD2
:0D052B00FC0809EB70F08523A08524A122B7
:08053800E493F608A3D9F922AF
:0405400075D55122FA
:10054400758780758922758840759850758DF57505
:05055400B003D28E226D
:10055900851E1FA81FE6600AA81F865911D8051F06
:0305690080F122FC
:10056C00851E1FA81FE6600AA81F865911D8051FF3
:0D057C0080F175590D11D875590A11D8225A
:10058900851E23851F24C3E51E940074006480F82A
:10059900E51F648098500DC37400951EF51E740004
:1005A900951FF51F752100752200E5202521F88585
:1005B90000257C0A7D00A81EA91F11E3A804A9052E
:1005C900743028F9A825A60174012521F5217400A4
:1005D9003522F5227C0A7D00A81EA91F11E385009A
:1005E9001E85011FD3E8940074006480FAE96480D1
:1005F9009A50B7C3E523940074006480F8E5246435
:1006090080985013E5202521F8762D74012521F5D0
:100619002174003522F522E5202521F87600852070
:0406290059512222DF
:10062D00751F007520007521007522007559007524
:10063D005A00A81E860185015BE933E495E0F55C5F
:10064D005105E51F28F51FE52039F52075210775A2
:10065D002200C3E521940074006480F8E5226480D3
:10066D009840417801E51F088007C333C52033C585
:10067D0020D8F7F51F85215985225AE51E2401F84A
:10068D00865BE633E495E0F55C5105E51F28F51F23
:10069D00E52039F520C3E5219401F521E5229400EB
:1006AD00F52280AE752107752200C3E521940574EE
:1006BD00006480F8E52264809840417801E51F08C8
:1006CD008007C333C52033C520D8F7F51F852159C1
:1006DD0085225AE51E2402F8865BE633E495E0F5A3
:1006ED005C5105E51F28F51FE52039F520C3E521EF
:1006FD009401F521E5229400F52280AEA81FA920D2
:01070D0022C9
:10070E00A81EA91F916C7C6F7D127E8375074071A8
:0D071E001D7C007D007E807507453119228D
:10072B00752D00752E00851E55851F568520578506
:10073B002158E55564FF7010E55664FF700AE557C4
:10074B0064FF7004E55864FF701785225975234EBA
:10075B0075246175254E752600755A23710878032B
:10076B0022752F01E55854806010E5586480F88598
:10077B000058052FA822762D0522E55545564557DD
:10078B0045587011852259752730752800755A27E1
:10079B007108780022E55564007010E5566400700E
:1007AB000AE55764807004E558647F7017852259F9
:1007BB00752949752A4E752B46752C00755A29716A
:1007CB0008A82F22C37C007D007E8075073FA855AB
:1007DB00A956AA57AB58519840047800800278016B
:1007EB00E86024A855A956AA57AB587C007D007E1B
:1007FB002075074112031D8500558501568502574B
:10080B00850358152E80BDC37C007D007E207507A7
:10081B0041A855A956AA57AB581202985004780014
:10082B0080027801E86024A855A956AA57AB587CDA
:10083B00CD7DCC7ECC75073D12031D850055850102
:10084B0056850257850358052E80BC7C01A855A9F7
:10085B0056AA57AB5812027A850055850156850268
:10086B0057850358C3E558947FF885005475580194
:10087B00AC00A855A956AA57AB5812027A85005559
:10088B0085015685025785035874302558F9A822DF
:10089B00A6010522C374016480F8E52E648098409C
:1008AB000FD374066480F8E52E648098500280099B
:1008BB00A822762E0522752D01755406E55470027B
:1008CB0021347558007C02A855A956AA57AB58126B
:1008DB00027AE55528F8E55639F9E5573AFAE5581D
:1008EB003BFB8500558501568502578503587C01D6
:1008FB00A855A956AA57AB5812027A8500558501FF
:10090B005685025785035874302558F9A822A6013D
:10091B000522E52D700F152EE52E7009A822762ED7
:10092B000522752D01155401C7E52224FFF8860118
:10093B00E964307004152280F0E52224FFF886016B
:10094B00E9642E70021522E52E604EA8227665050D
:10095B0022C374006480F8E52E648098500DA822A1
:10096B00762D0522C37400952EF52E852E54D3E5D6
:10097B002E9409401175F00AE55484F8743028F967
:10098B00A822A601052275F00AE55484E5F0F87457
:10099B003028F9A822A6010522A822760078002289
:1009AB00758180120AD4120540120544D2A000753D
:1009BB001E00751F007B1B12047B7B03A808791B91
:1009CB00E7F67A01C3EB9AFBE49BFC0809EB70F0AA
:1009DB00A808A61B08A61C85081E12062D85001547
:1009EB0085011685001E85011F12070E85001785D0
:1009FB00011885021985031A751E3012056C8515B1
:100A0B001E85161F752009120589751E471205597B
:100A1B00751E0912056C85171E85181F85192085F3
:100A2B001A2175220F12072B751E3B120559751EC5
:100A3B000F12056C7D077E567F3CDFFEDEFCDDFA78
:100A4B00751E01751F007B1B12047B7B03A80879A5
:100A5B001BE7F67A01C3EB9AFBE49BFC0809EB70EE
:100A6B00F0A808A61B08A61C85081E12062D8500DB
:100A7B001585011685001E85011F12070E850017AF
:100A8B0085011885021985031A7D077E567F3CDF89
:090A9B00FEDEFCDDFA21BA80FE4A
:0E0AD400783079247582A475830A12053822C1
:0B0AA4006368616E6E656C203000001E
:0C0AAF0041444320696E7075743A2000C9
:0D0ABB0041444320726573756C743A20004D
:040AC8004E614E002D
:020ACC003000F8
:040ACE00494E460047
:010AD2000023
:010AD3000022
:00000001FF
