:10000000020B3402000000000000000200000000AB
:1000100000000002000000000000000200000000DC
:0E0020000000000200000000000000020000CE
:10002E00BD000BB90029E88CF084F8ACF022E4CDC9
:10003E00FF75F008E828F8E933F9ED33FDE99CED9A
:10004E009F4005FDE99CF908D5F0E9E4C9FC22ECD6
:10005E00FFF5F0E98420D21CF9ACF075F008E82821
:10006E00F8EC33FC40079F5006D5F0F222C39FFCFC
:05007E0008D5F0EA22A4
:10008300C2A6C2A4C2A574C0252FF874003530F9E6
:0C00930085002F850130850080D2A62258
:0C009F00C2A6D2A4C2A5852F80D2A62242
:1000AB00C2A6C2A4C2A574B8252FF874003530F9C6
:0C00BB0085002F850130850080D2A62230
:1000C700C2A6C2A4C2A57440252FF874003530F922
:0C00D70085002F850130850080D2A62214
:1000E300C2D5ED30E709B2D5E4C39CFCE49DFDE93C
:1000F30030E715B2D5E4C398F8E499F912002EC39A
:10010300E49CFCE49DFD800312002E30D507C3E47C
:0601130098F8E499F922BE
:10011900753200C3E5329405500BE5312532F87686
:1001290020053280EEE5312532F876001532E531C9
:100139002532F88500337C0A7D00A82FA930112EBD
:10014900A804A905743028F9A833A6017C0A7D0002
:10015900A82FA930112E85002F850130E84970029A
:070169008004153280C8225A
:10017000752700752800752900752A00752B0175F3
:100180002C007806E52285212D088008A2E713C5FA
:100190002D13C52DD8F6F52E740165257004740055
:1001A00065267006752B00752C007803E5248523E1
:1001B0002F088008A2E713C52F13C52FD8F6F530F6
:1001C00011ABE52D452E700EC2A2D2A385212F853D
:1001D000223011C7801AD2A2C2A37C407D00A82180
:1001E000A92211E3A804A90585002F85013011C7B4
:1001F000752F0075300011837C087D00A823A92489
:1002000011E3A804A90585002985012A7527007531
:100210002800C3E5299401F9E52A9400FAC3E527EB
:1002200099EA6480F8E52864809850207801E52BED
:10023000088007C333C52C33C52CD8F7F52B7401C0
:100240002527F52774003528F52880C6D3E52394A3
:100250000074006480F8E52464809840127801E519
:100260002B088007C333C52C33C52CD8F7F52B8555
:070270002B2F119FC2A622F3
:10027700752600752700852128852229C3E5219445
:100287000074006480F8E522648098501375260195
:10029700752700C374009521F52874009522F52968
:1002A70085282F8529308523313119752406752531
:1002B70000D3E5249400E52594004025E523252473
:1002C700F8C3E5249401F9E5259400FAE52329F913
:1002D700E7F6C3E5249401F524E5259400F5258088
:1002E700D0A8237620E52645276034752400752598
:1002F70000E5232524F88601E96420700E740125A2
:1003070024F52474003525F52580E6C3E5249401FA
:10031700F524E5259400F525E5232524F8762D22F7
:10032700AA21E524A8230A8006A2E713C813C8DA7E
:09033700F8F95300015301002202
:04034000852186226B
:0B034400858621E4F522A821A92222D1
:10034F007806E522852127088008A2E713C5271321
:10035F00C527D8F6F5287803E52485232F088008CC
:10036F00A2E713C52F13C52FD8F6F53011ABE5272C
:10037F004528700EC2A2D2A385212F85223011C726
:10038F00801AD2A2C2A37C407D00A821A92211E32A
:10039F00A804A90585002F85013011C7752F007599
:0C03AF003000118385252F119FC2A6226B
:0B03BB0085219920990280FBC2992245
:0E03C600D2A6C2A4C2A575803FC2A2C2A322C5
:1003D400C3E5109512E5136480F8E5116480984034
:1003E4000578FF79FF22851014851115C3E514954E
:1003F40012E5136480F8E51564809850477516007B
:10040400751700D3E516944074006480F8E517640A
:10041400809850228514218515228516238517245A
:10042400752501752600317074012516F5167400C2
:100434003517F51780CD74012514F514740035159E
:09044400F51580A878007900226A
:10044D00758780758922758840759850758DF575FD
:05045D00B003D28E2265
:08046200E493F608A3D9F92286
:04046A0075D55122D1
:10046E008503147512C0751300E5104511700280D6
:10047E004C74016510700474006511700E740825BB
:10048E0012F51274003513F5138032740265107074
:10049E000474006511700E74102512F51274003577
:1004AE0013F51380187403651070047400651170D1
:1004BE000C74182512F51274003513F5138512807D
:1004CE00C2A08512218513227140E5AA20E7028081
:1004DE00F971448500157521007522007140E5AA59
:1004EE0020E70280F97144850016752100752200FF
:1004FE007140E5AA20E70280F97144850017D2A069
:10050E007B03A8147915E7F67A01C3EB9AFBE49BFB
:0D051E00FC0809EB70F085156D85166E2246
:10052B0085102185112275231651777520167514A8
:10053B005F751500A820E67003020981A8208601CB
:10054B00E964397063751200751300C3E5129407E3
:10055B0074006480F8E513648098504985142185F4
:10056B001522752308752400743F2512F874003585
:10057B0013F9740E28FA740C39FB850282850383F8
:10058B00E493F8850025E4F526714F74012514F5E5
:10059B001474003515F51574012512F51274003518
:1005AB0013F51380A6020975A8208601E96438703B
:1005BB0063751200751300C3E51294077400648011
:1005CB00F8E513648098504985142185152275230D
:1005DB000875240074382512F874003513F9740E5D
:1005EB0028FA740C39FB850282850383E493F88522
:1005FB000025E4F526714F74012514F514740035AC
:10060B0015F51574012512F51274003513F51380C9
:10061B00A6020975A8208601E9643770637512007C
:10062B00751300C3E512940774006480F8E5136436
:10063B00809850498514218515227523087524004F
:10064B0074312512F874003513F9740E28FA740CF2
:10065B0039FB850282850383E493F8850025E4F555
:10066B0026714F74012514F51474003515F51574A6
:10067B00012512F51274003513F51380A6020975C6
:10068B00A8208601E964367063751200751300C3E8
:10069B00E512940774006480F8E513648098504960
:1006AB00851421851522752308752400742A2512BB
:1006BB00F874003513F9740E28FA740C39FB8502A3
:1006CB0082850383E493F8850025E4F526714F7446
:1006DB00012514F51474003515F51574012512F563
:1006EB001274003513F51380A6020975A820860134
:1006FB00E964357063751200751300C3E512940736
:10070B0074006480F8E51364809850498514218542
:10071B00152275230875240074232512F8740035EF
:10072B0013F9740E28FA740C39FB85028285038346
:10073B00E493F8850025E4F526714F74012514F533
:10074B001474003515F51574012512F51274003566
:10075B0013F51380A6020975A8208601E96434708D
:10076B0063751200751300C3E5129407740064805F
:10077B00F8E513648098504985142185152275235B
:10078B0008752400741C2512F874003513F9740EC7
:10079B0028FA740C39FB850282850383E493F88570
:1007AB000025E4F526714F74012514F514740035FA
:1007BB0015F51574012512F51274003513F5138018
:1007CB00A6020975A8208601E964337063751200CF
:1007DB00751300C3E512940774006480F8E5136485
:1007EB008098504A8514218515227523087524009D
:1007FB0074152512F874003513F9740E28FA740C5D
:10080B0039FB850282850383E493F8850025E4F5A3
:10081B002612034F74012514F51474003515F515C4
:10082B0074012512F51274003513F51380A521758B
:10083B00A8208601E964327063751200751300C33A
:10084B00E512940774006480F8E513648098504AAD
:10085B00851421851522752308752400740E251225
:10086B00F874003513F9740E28FA740C39FB8502F1
:10087B0082850383E493F8850025E4F52612034F64
:10088B0074012514F51474003515F5157401251232
:10089B00F51274003513F51380A52175A820860178
:1008AB00E964317063751200751300C3E512940788
:1008BB0074006480F8E513648098504A8514218590
:1008CB00152275230875240074072512F87400355A
:1008DB0013F9740E28FA740C39FB85028285038395
:1008EB00E493F8850025E4F52612034F74012514D3
:1008FB00F51474003515F51574012512F5127400F5
:10090B003513F51380A58062A8208601E964307049
:10091B0059751200751300C3E512940774006480B7
:10092B00F8E51364809850428514218515227523B0
:10093B0008752400740E2512F9740C3513FA850111
:10094B0082850283E493F8850025E4F52612034F94
:10095B0074012514F51474003515F5157401251261
:10096B00F51274003513F51380ADA8208621120300
:07097B00BB052002053F222D
:1009820075105F751100C3E510948074006480F8DF
:10099200E511648098502385102185112275230862
:1009A20075240075250075260012034F7401251069
:0B09B200F51074003511F51180CC2207
:1009BD007512007513007514FF7515007806E51195
:1009CD00851016088008A2E713C51613C516D8F6AC
:1009DD00F517751200751300C3E5129408740064C1
:1009ED0080F8E5136480985057E5164517700FC2CF
:1009FD00A2D2A385102F8511301200C7801CD2A260
:100A0D00C2A37C407D00A810A9111200E3A804A97F
:100A1D000585002F8501301200C785122F851330F3
:100A2D001200AB752F0075300012008385142F1244
:100A3D00009F74012512F51274003513F51380987B
:030A4D00C2A6221C
:100A5000751100751200751300751400752100756D
:100A60002200A8108601850123E933E495E0F524EE
:100A7000120327E51128F511E51239F51275130750
:100A8000751400C3E513940074006480F8E51464E1
:100A9000809840427801E511088007C333C51233BE
:100AA000C512D8F7F511851321851422E51024010C
:100AB000F88623E633E495E0F524120327E51128B0
:100AC000F511E51239F512C3E5139401F513E51498
:100AD0009400F51480AD751307751400C3E51394E5
:100AE0000574006480F8E51464809840427801E55C
:100AF00011088007C333C51233C512D8F7F5118525
:100B00001321851422E5102402F88623E633E495A8
:100B1000E0F524120327E51128F511E51239F51245
:100B2000C3E5139401F513E5149400F51480ADA802
:040B300011A91222D3
:100B3400758180750900750A0012046A12044DD289
:100B4400A0001203C675100075110075128075138C
:100B5400001203D4750BA0750C0F75105C75110091
:100B640031BD7510007511007B0D12046E7B03A856
:100B740008790DE7F67A01C3EB9AFBE49BFC0809BC
:100B8400EB70F0A808A60D08A60E85081051508534
:100B9400000B85010C3182850B10850C1112052B7D
:100BA4007A06E50CA80B0A8006A2E713C813C8DA74
:100BB400F8F9C3744098F523740099F524C3E52328
:100BC4009401F523E5249400F524850921850A225E
:100BD40075250075260012017074012509F5097444
:100BE40000350AF50A745C650970047400650A70BE
:100BF40015750900750A0075100075110075125CF1
:0A0C04007513001203D4616680FE30
:100C0E0000007E41413F00000042417F4000000055
:100C1E004261594E000000414949370000001C1640
:100C2E00117F1000004F4949310000003E494939FB
:100C3E000000000161390F030036494949360000B2
:060C4E00004E49493E0082
:0D0C540041444320726573756C743A2000B2
:0C0C610041444320696E7075743A200015
:0A0C6D006368616E6E656C20300054
:0A0C77006368616E6E656C20310049
:070C81004761696E3A200093
:030C88000D0A0052
:00000001FF
