:1000000002190902000000000000000200000000C8
:1000100000000002000000000000000200000000DC
:0E0020000000000200000000000000020000CE
:10002E008003020155EE33EF3360110460F4EA33BE
:10003E00EB337009EFFBEEFAEDF9ECF8220460E217
:10004E00D3EC98ED99EE9AEFC2E78BF0C2F795F0EC
:10005E00400CEFCBFFEECAFEEDC9FDECC8FC120161
:10006E002085D0F05F04700320D5B7EF04700750E1
:10007E0002B2D502015F92D5EB0460F7E4CBC0E08B
:10008E00C39FFF603B94186008400DD0E0FC020156
:10009E0037E4FCFDCEFB8028EF30E406E4CEFCE432
:1000AE00CDFBEF30E305E4CECDCCFBEF5407601073
:1000BE00FFC3EE13FEED13FDEC13FCEB13FBDFF1B0
:1000CE0030F52DC3E49BFBE89CF8E99DF9EA9EFA16
:1000DE00D0E0FCE8494A4B701122DC028070EB2B19
:1000EE00FBE833F8E933F9EA33FAEA30E7EC803922
:1000FE00E82CF8E93DF9EA3EFAD0E0FC50120CBCCF
:10010E000002804DEA13FAE913F9E813F8EB13FB3A
:10011E008017EED2E7CE33EF33FF92D5EAD2E7CA9D
:10012E0033EB33FB5002B2D522EB30E71008B800A8
:10013E000C09B900080ABA00040CEC6014A2D5EC44
:10014E0013FBEA92E7FA2274FFFBFAF9F822E48035
:0D015E00F8A2D574FF13FB7A80E480EF2235
:10016B003392D530D503120196EB334010E833F8B8
:10017B00E933F9EA33FAEB33FBD5F0ED22E5F02462
:10018B007EA2D513CB92E7CAC9F822C3E498F8E450
:09019B0099F9E49AFAE49BFB22B5
:1001A400EAD2E7CA33EB3392D524814006E4F8F966
:1001B400FAFB22FBE4C8C9CACB24E0501174FF80C7
:1001C400EDC3CB13CBCA13CAC913C9C813C804706F
:1001D400F030D5DEC3E498F8E499F9E49AFAE49BA4
:0201E400FB22FC
:1001E60074F8CF6480CFCB6480CBF5820470028034
:1001F60043C3E89CF5F0E99D42F0EA9E42F0EB9F8E
:1002060045F060305018E5825CFCE582F4285582A2
:10021600F8502109B9001D0ABA00190B8016E582AB
:1002260058F8E582F42C5582FC50090DBD00050EE8
:10023600BE00010FC3E89CF5F0E99D42F0EA9E423C
:10024600F0EB9F45F06007CF4B20E701B3EF22228A
:10025600EB4A6011EF4E7017EA33EB3304600DE49E
:10026600FBF8F9FA22EE33EF330470F802038F122B
:10027600035A5F046009E4CB248150062F5009021B
:1002860003992F4003020396C0E0EC4D7044BE80F4
:1002960006D0E0FC020385E849701CBA8008ECF839
:1002A600EDF9EEFA80EBEE8AF0A4F9E5F002033FF1
:1002B600EECAFEEDF9ECF8E88EF0A4FBE5F0C98E87
:1002C600F0A429F8E435F0CA8EF0A42AF9E435F052
:1002D6008067E8497005BA80D780C3E88CF0A4AB84
:1002E600F0E98CF0A42BFBE435F0FFE88DF0A42BAD
:1002F600E5F03FFBE433CC8AF0A42BFBE5F03CFFB2
:10030600E98DF0A42BFBE5F03FFFE433C88EF0A4A3
:100316002BFBE5F03FC83400C98EF0A428F8E5F0C1
:1003260039F9E433CE8AF0A429F9E5F03ECA8DF016
:10033600A428F8E5F039F9E43AFA33D0E0FC50069F
:100346000CBC000E804DEB2BFBE833F8E933F9EAE1
:1003560033FA8017EED2E7CE33EF33FF92D5EAD2E7
:10036600E7CA33EB33FB5002B2D522EB30E7100875
:10037600B8000C09B900080ABA00040CEC6014A213
:10038600D5EC13FBEA92E7FA2274FFFBFAF9F8229E
:0F039600E480F8A2D574FF13FB7A80E480EF2295
:1003A500EC600FEBC313FBEA13FAE913F9E813F852
:0303B500DCF12256
:0803B800EF6480FF12002E2209
:0703C00075F020EB316B2208
:1003C7007A02A964E5630A8005C333C933C9DAF938
:1003D700F8E56128FCE56239FD850482850583E43B
:1003E70093F8E4A393F9E4A393FAE4A393FB8500BA
:1003F70065850166850267850368E5634564700264
:100407008060A85DA95EAA5FAB60AC65AD66AE67AC
:10041700AF685156C3E5639401F563E5649400F54D
:10042700647E02AD64E5630E8005C333CD33CDDE54
:10043700F9FCE5612CF569E5623DF56A8569828518
:100447006A83E493FCE4A393FDE4A393FEE4A393FC
:10045700F507112E850065850166850267850368A6
:0B0467008101A865A966AA67AB6822A6
:100472008003020552EB5A046005EF5E047003022A
:1004820005481205135F0460F6EB4F60F2EB70044F
:10049200FAF9F822CF60DB2481CF5009C39F6002B2
:1004A200500602054F9F50CAF582EE2E4C4D700544
:1004B200AC8202053E75F0007B1A7F80C3E89CE99E
:1004C2009DEA9E400DC3E89CF8E99DF9EA9EFAEF89
:1004D20042F0DB22ABF0D0E0F8D0E0F9D0E0FAACA9
:1004E2008220E7101CEC60BAEB2BFBE833F8E9330F
:1004F200F9EA33FA8032EF03FF30E705C0F075F016
:1005020000E828F8E933F9EA33FA40B930E7C38062
:10051200ABEED2E7CE33EF33FF92D5EAD2E7CA335E
:10052200EB33FB5002B2D522EB30E71008B8000CD7
:1005320009B900080ABA00040CEC60ECA2D5EC136D
:10054200FBEA92E7FA2274FFFBFAF9F822E480F858
:0C055200A2D574FF13FB7A80E480EF2236
:10055E00BD000BB90029E88CF084F8ACF022E4CD94
:10056E00FF75F008E828F8E933F9ED33FDE99CED65
:10057E009F4005FDE99CF908D5F0E9E4C9FC22ECA1
:10058E00FFF5F0E98420D21CF9ACF075F008E828EC
:10059E00F8EC33FC40079F5006D5F0F222C39FFCC7
:0505AE0008D5F0EA226F
:1005B300855D62855E63855F64856065E5645480FF
:1005C300F9E565547FFA7807EA088005C313C91370
:1005D300C9D8F9FAC3E9947EF9EA9400FAA861A6A6
:1005E3000108A60274006564F8743F6565F9530059
:1005F3008053017FE5646200E565620185006485DF
:0B0603000165A862A963AA64AB652230
:10060E007C17A85DA95EAA5FAB6071A55300FF536E
:10061E000100850065850166C3E8947FFAE99400C0
:10062E00FB850265850366C3EA940074006480F856
:10063E00EB6480985031C37C007D007E007507000E
:10064E00A85DA95EAA5FAB6031E640047800800227
:10065E007801E86009780079007A807BBF22780003
:10066E0079007A007B0022D3E5659418E566940044
:10067E004009A85DA95EAA5FAB6022A85DA95EAA2B
:10068E005FAB6031A471C085006185016285026334
:10069E00850364D3AC5DAD5EAE5FAF6031E66006E0
:1006AE004004780180027800E860147C007D007EB2
:1006BE008075073FA861A962AA63AB6471B822A8CE
:0806CE0061A962AA63AB64227A
:1006D600855D63855E64855F65856066E5655480D6
:1006E600F9E566547FFA7807EA088005C313C9134B
:1006F600C9D8F9FAE56129F9E5623AFA8501618511
:100706000262C3E9940074006480F8EA6480985039
:1007160009780079007A007B0022D3E56194FF74A2
:10072600006480F8E5626480984031C37C007D00F7
:100736007E00750700A85DA95EAA5FAB6031E64042
:1007460004780080027801E8600978FF79FF7A7FF3
:100756007BFF2278FF79FF7A7F7B7F227807AA00CA
:10076600A962E5610A8005C333C933C9DAF9F8E538
:10077600656200E566620153008053017FE56562AC
:1007860000E5666201850065850166A863A964AA1D
:0407960065AB6622C7
:0F079A00AB01AA007900780075F010EB316B22EB
:1007A900755700755800C3E5559401F559E55694F8
:1007B90000F55AC3E5579559E55A6480F8E5586438
:1007C90080985033E5542557F8865BE4F55CE55489
:1007D9002559F9E7F6E5542559F8A65B740125571B
:1007E900F55774003558F558C3E5599401F559E59D
:0807F9005A9400F55A80BC225D
:10080100C2D5ED30E709B2D5E4C39CFCE49DFDE916
:1008110030E715B2D5E4C398F8E499F912055EC33F
:10082100E49CFCE49DFD800312055E30D507C3E422
:0608310098F8E499F92299
:100837007C007D007E00750700A854A955AA56AB19
:10084700571201E66004780080027801E8600978B1
:100857000079007A807B3F22D37CFE7DD47EB275FF
:100867000742A854A955AA56AB571201E66006409D
:1008770004780180027800E8600978FF79FF7A7FC1
:100887007B7F22C37C507DAC7EAE7507C2A854A97E
:1008970055AA56AB571201E640047800800278014A
:1008A700E86009780079007A007B0022C37C007D2C
:1008B700007E00750700A854A955AA56AB57120128
:1008C700E6400478008002780185005AE8600C63EE
:1008D7005400635500635600635780A854A955AA6E
:1008E70056AB577C3B7DAA7EB875073F12025685EB
:1008F700005485015585025685035785005D85019E
:100907005E85025F85036012060E1201A4850058FA
:1009170085015912079AAC00AD01AE02AF03A85486
:10092700A955AA56AB571203B885005485015585BA
:10093700025685035785005D85015E85025F850345
:100947006075612775621B7563097564001203C7BB
:1009570085005D85015E85025F8503608558618539
:1009670059621206D68500548501558502568503BE
:1009770057E55A603C7CFF7DFF7E7F75077FA85453
:10098700A955AA56AB571201E66004780080027891
:1009970001E86009780079007A007B0022AC54AD49
:1009A70055AE56AF57780079007A807B3F120472B4
:0A09B70022A854A955AA56AB5722F6
:1009C100D37C007D007E00750700A854A955AA5666
:1009D100AB571201E660064004780080027801E816
:1009E1006009780079007A007B002285545D855585
:1009F1005E85565F8557607561581205B37C007D31
:100A0100007E007507401202567C007D007E8075D5
:100A1100073F1203B88500548501558502568503A9
:100A210057C3E5589401F558E5599400F5598500E7
:100A31005D85015E85025F85036075614F75621B8F
:100A41007563087564001203C785005485015585D7
:100A51000256850357A858A95912079A7C187D7226
:100A61007E3175073F120256AC54AD55AE56AF57A5
:040A710012002E221F
:100A7500C2A6C2A4C2A574C02547F874003548F9BA
:0C0A8500850047850148850080D2A6222C
:0C0A9100C2A6D2A4C2A5854780D2A6222E
:100A9D00754F007C007D007E00750700A84BA94CAA
:100AAD00AA4DAB4E1201E66004780080027801E891
:100ABD006009780079007A807B3F227C007D007E82
:100ACD0000750700A847A948AA49AB4A1201E6607C
:100ADD0004780080027801E86009780079007A00D6
:100AED007B0022C37C007D007E00750700A847A90E
:100AFD0048AA49AB4A1201E6400478008002780109
:100B0D00E8604BA84BA94CAA4DAB4E1201A4850031
:100B1D00508501518502528503531203C0AC4BAD74
:100B2D004CAE4DAF4E1201E6700478008002780194
:100B3D00E86009780079007A007B00227401555035
:100B4D00F54F634700634800634900634A8085475A
:100B5D0054854855854956854A5731C18500478585
:100B6D00014885024985034AAC4BAD4CAE4DAF4EA5
:100B7D0012025685004785014885024985034A853D
:100B8D000054850155850256850357113785004759
:100B9D0085014885024985034AE54F6015E547649F
:100BAD0000F8E5486400F9E5496400FAE54A648017
:0B0BBD00FB22A847A948AA49AB4A2226
:100BC800754C00754D00E5474548603CE549254CA6
:100BD800F885004E7C0A7D00A847A9481101A804A1
:100BE800A905743028F9A84EA6017401254CF54CC6
:100BF8007400354DF54D7C0A7D00A847A9481101C0
:100C080085004785014880BEC3E54C954AE54B649D
:100C180080F8E54D6480985015E549254CF8763004
:100C28007401254CF54C7400354DF54D80DA854935
:100C380054854C55854D561207A9E549254CF8763B
:060C480000A84CA94D229A
:100C4E00C2A6C2A4C2A574402547F874003548F95F
:0C0C5E00850047850148850080D2A62251
:100C6A00C2A6C2A4C2A574B82547F874003548F9CB
:0C0C7A00850047850148850080D2A62235
:100C86007806E53985383E088008A2E713C53E1385
:100C9600C53ED8F6F53F7803E53B853A4708800818
:100CA600A2E713C54713C547D8F6F548916AE53E4E
:100CB600453F700EC2A2D2A3853847853948914E6A
:100CC600801AD2A2C2A37C407D00A838A93911019E
:100CD600A804A905850047850148914E754700750A
:0C0CE60048005175853C475191C2A62280
:100CF200AA38E53BA83A0A8006A2E713C813C8DA65
:090D0200F8F9530001530100222D
:040D0B00853886227F
:0B0D0F00858638E4F539A838A93922A0
:100D1A00753E00753F0075400075410075420175CA
:100D2A0043007806E539853844088008A2E713C5E8
:100D3A004413C544D8F6F5457401653C7004740043
:100D4A00653D70067542007543007803E53B853AB8
:100D5A0047088008A2E713C54713C547D8F6F548E0
:100D6A00916AE5444545700EC2A2D2A385384785EB
:100D7A003948914E801AD2A2C2A37C407D00A8387D
:100D8A00A9391101A804A905850047850148914E92
:100D9A0075470075480051757C087D00A83AA93B43
:100DAA001101A804A905850040850141753E007519
:100DBA003F00C3E5409401F9E5419400FAC3E53EDA
:100DCA0099EA6480F8E53F64809850207801E5420A
:100DDA00088007C333C54333C543D8F7F5427401C6
:100DEA00253EF53E7400353FF53F80C6D3E53A947B
:100DFA000074006480F8E53B64809840127801E54D
:100E0A0042088007C333C54333C543D8F7F5428543
:070E1A0042475191C2A622DC
:100E2100E88CF0A4AFF0C88DF0A42FC98CF0A429F0
:020E3100F922A4
:100E3300A838A939AA3AAB3B1201A485004585011C
:100E430046A845A94612079AAC00AD01AE02AF030E
:100E5300A838A939AA3AAB3B1203B885003F8501EC
:100E630040850241850342854547854648853C497F
:100E7300754A00754B0071C8850043850144E53D03
:100E8300453E6058E53C2543F8762E754700754886
:100E930000754920754A41A83DA93E12079A85006D
:100EA3004B85014C85024D85034E519DAC3FAD40B2
:100EB300AE41AF4212025685003F85014085024193
:100EC3008503421201A4850047850148E53C25437B
:0D0ED300F5490549853D4A853E4B71C82211
:100EE000C3E538940074006480F8E5396480985054
:100EF0000CC374009538F874009539F922A838A904
:020F0000392294
:080F0200E493F608A3D9F922DB
:100F0A00C3E51E9520E5216480F8E51F64809840BA
:100F1A000578FF79FF22851E22851F23C3E52295C6
:100F2A0020E5216480F8E523648098504775240001
:100F3A00752500D3E524944074006480F8E525649F
:100F4A008098502285223885233985243A85253B85
:100F5A00753C00753D00918674082524F5247400BB
:100F6A003525F52580CD74012522F5227400352317
:090F7A00F52380A878007900221B
:040F830075D55322AB
:0E0F8700D2A6C2A4C2A575803FC2A2C2A322F8
:100F9500758780758922758840759850758DF575AA
:050FA500B003D28E2212
:100FAA00A81EA91F12079A7C007D007E7A75074445
:100FBA001204727C007D007E0075074012025622E0
:100FCA00752600752700C3E5249520F8E5259521A7
:100FDA00F9850028850129C3E51E9522F52AE51F12
:100FEA009523F52B850038850139D1E085003685B2
:100FFA000137852A38852B39120EE0D3E53698E970
:10100A006480FAE53764809A4008752C01752D00D2
:10101A008006752CFF752DFFC3E5289400740064C3
:10102A0080F8E5296480985008752EFF752FFF8097
:10103A0006752E01752F00C3E52A9400740064809A
:10104A00F8E52B64809850087530FF7531FF8006EB
:10105A00753001753100851E38851F3985203A851E
:10106A00213B753C00753D00120D1A851E32851F05
:10107A003385203485213574FF652C700474FF652F
:10108A002D6002211DA828A929AC2EAD2F120E21F0
:10109A00E52628FAE52739FB850226850327D3EAC0
:1010AA00940074006480F8EB6480984022A82AA90E
:1010BA002BAC30AD31120E21C3E52698F526E52773
:1010CA0099F527E534252EF534E535352FF535C361
:1010DA00E5329530F8E5339531F9850032850133EB
:1010EA0085003885013985343A85353B753C00756C
:1010FA003D00120D1AE53265227004E5336523605E
:10110A0002018FE53465247004E535652560020126
:10111A008F21A9A82AA92BAC30AD31120E21E526C0
:10112A0028FAE52739FB850226850327D3EA9400A6
:10113A0074006480F8EB6480984023A828A929AC3D
:10114A002EAD2F120E21C3E52698F526E52799F52F
:10115A0027C3E5329530F532E5339531F533E53479
:10116A00252EF8E535352FF9850034850135853288
:10117A003885333985003A85013B753C00753D0059
:10118A00120D1AE53265227004E5336523600221E7
:10119A001DE53465247004E53565256002211D22AC
:1011AA00851E38851F3985203A85213B753C267571
:1011BA003D02753E00120E3375302675245F752583
:1011CA0000A830E67002C168A8308601E964397067
:1011DA0063752200752300C3E522940774006480B6
:1011EA00F8E523648098504A852438852539753A6C
:1011FA0008753B00743F2522F874003523F974E121
:10120A0028FA741A39FB850282850383E493F885E8
:10121A00003CE4F53D120C8674012524F524740083
:10122A003525F52574012522F52274003523F52389
:10123A0080A5C164A8308601E9643870637522000C
:10124A00752300C3E522940774006480F8E52364DB
:10125A008098504A852438852539753A08753B00A7
:10126A0074382522F874003523F974E128FA741ABF
:10127A0039FB850282850383E493F885003CE4F513
:10128A003D120C8674012524F52474003525F525B4
:10129A0074012522F52274003523F52380A5C16443
:1012AA00A8308601E964377063752200752300C38C
:1012BA00E522940774006480F8E523648098504A14
:1012CA00852438852539753A08753B0074312522FD
:1012DA00F874003523F974E128FA741A39FB850287
:1012EA0082850383E493F885003CE4F53D120C867D
:1012FA0074012524F52474003525F5257401252269
:10130A00F52274003523F52380A5C164A83086012F
:10131A00E964367063752200752300C3E5229407D9
:10132A0074006480F8E523648098504A85243885DF
:10133A002539753A08753B00742A2522F874003558
:10134A0023F974E128FA741A39FB8502828503832A
:10135A00E493F885003CE4F53D120C8674012524DB
:10136A00F52474003525F52574012522F52274002B
:10137A003523F52380A5C164A8308601E964357058
:10138A0063752200752300C3E52294077400648004
:10139A00F8E523648098504A852438852539753ABA
:1013AA0008753B0074232522F874003523F974E18B
:1013BA0028FA741A39FB850282850383E493F88537
:1013CA00003CE4F53D120C8674012524F5247400D2
:1013DA003525F52574012522F52274003523F523D8
:1013EA0080A5C164A8308601E9643470637522005F
:1013FA00752300C3E522940774006480F8E523642A
:10140A008098504A852438852539753A08753B00F5
:10141A00741C2522F874003523F974E128FA741A29
:10142A0039FB850282850383E493F885003CE4F561
:10143A003D120C8674012524F52474003525F52502
:10144A0074012522F52274003523F52380A5C16491
:10145A00A8308601E964337063752200752300C3DE
:10146A00E522940774006480F8E523648098504A62
:10147A00852438852539753A08753B007415252267
:10148A00F874003523F974E128FA741A39FB8502D5
:10149A0082850383E493F885003CE4F53D120C86CB
:1014AA0074012524F52474003525F52574012522B7
:1014BA00F52274003523F52380A5C164A83086017E
:1014CA00E964327063752200752300C3E52294072C
:1014DA0074006480F8E523648098504A852438852E
:1014EA002539753A08753B00740E2522F8740035C3
:1014FA0023F974E128FA741A39FB85028285038379
:10150A00E493F885003CE4F53D120C867401252429
:10151A00F52474003525F52574012522F522740079
:10152A003523F52380A5C164A8308601E9643170AA
:10153A0063752200752300C3E52294077400648052
:10154A00F8E523648098504A852438852539753A08
:10155A0008753B0074072522F874003523F974E1F5
:10156A0028FA741A39FB850282850383E493F88585
:10157A00003CE4F53D120C8674012524F524740020
:10158A003525F52574012522F52274003523F52326
:10159A0080A5C164A8308601E96430705B752200B9
:1015AA00752300C3E522940774006480F8E5236478
:1015BA0080985042852438852539753A08753B004C
:1015CA0074E12522F9741A3523FA8501828502838A
:1015DA00E493F885003CE4F53D120C867401252459
:1015EA00F52474003525F52574012522F5227400A9
:1015FA003523F52380AD8062A8308601E9642E7018
:10160A0059752200752300C3E5229405740064808D
:10161A00F8E5236480985042852438852539753A3F
:10162A0008753B0074A92522F9741B3523FA850134
:10163A0082850283E493F885003CE4F53D120C862A
:10164A0074012524F52474003525F5257401252215
:0F165A00F52274003523F52380AD053021CB2216
:10166900751E5F751F00C3E51E948074006480F8C1
:10167900E51F6480985023851E38851F39753A08FF
:10168900753B00753C00753D00120C867401251EE2
:0B169900F51E7400351FF51F80CC22E9
:1016A4008503227520C0752100E51E451F70028048
:1016B4004C7401651E70047400651F700E74082557
:1016C40020F52074003521F52180327402651E70E6
:1016D400047400651F700E74102520F52074003505
:1016E40021F52180187403651E70047400651F7051
:1016F4000C74182520F52074003521F521852080EF
:10170400C2A0852038852139120D0BE5AA20E702F5
:1017140080F9120D0F850023753800753900120DFC
:101724000BE5AA20E70280F9120D0F850024753815
:1017340000753900120D0BE5AA20E70280F9120D9D
:101744000F850025D2A07B03A8227923E7F67A012E
:10175400C3EB9AFBE49BFC0809EB70F08523FA8544
:0317640024FB2241
:101767007520007521007522FF7523007806E51F97
:10177700851E24088008A2E713C52413C524D8F6BC
:10178700F525752000752100C3E5209408740064D1
:1017970080F8E5216480985057E5244525700FC2ED
:1017A700A2D2A3851E47851F48120C4E801CD2A2C9
:1017B700C2A37C407D00A81EA91F120801A804A986
:1017C70005850047850148120C4E8520478521482D
:1017D700120C6A754700754800120A758522471270
:1017E7000A9174012520F52074003521F521809890
:0317F700C2A62265
:10180500A81EA91F12079A7C6F7D127E837507405B
:101815001202567C007D007E8075074512047222F7
:10182500751F00752000752100752200753800753B
:101835003900A81E860185013AE933E495E0F53BB8
:10184500120CF2E51F28F51FE52039F52075210753
:10185500752200C3E521940074006480F8E52264D4
:10186500809840427801E51F088007C333C52033BF
:10187500C520D8F7F51F852138852239E51E2401B5
:10188500F8863AE633E495E0F53B120CF2E51F28BD
:10189500F51FE52039F520C3E5219401F521E52261
:1018A5009400F52280AD752107752200C3E52194CA
:1018B5000574006480F8E52264809840427801E56B
:1018C5001F088007C333C52033C520D8F7F51F850A
:1018D5002138852239E51E2402F8863AE633E49557
:1018E500E0F53B120CF2E51F28F51FE52039F52040
:1018F500C3E5219401F521E5229400F52280ADA8E8
:041905001FA92022D4
:1019090075818075828075831B7809790C120F02A5
:10191900751700751800751900751A00120F8312D2
:101929000F95D2A000120F87751E00751F00752034
:1019390080752100120F0A751E5C751F001217674A
:10194900753801753900753A01753B00753C0075AC
:101959003D00120D1A753801753900753A28753B25
:1019690000753C00753D00120D1A751E00751F00AB
:101979007B1B1216A47B03A808791BE7F67A01C31F
:10198900EB9AFBE49BFC0809EB70F0A808A61B087E
:10199900A61C85081E112585001585011685001EC2
:1019A90085011F110585000D85010E85020F85032F
:1019B900107A06E516A8150A8006A2E713C813C807
:1019C900DAF8F9C3744098F509740099F50AC3E582
:1019D900099401F509E50A9400F50AE50B450C702F
:1019E9000E850B17850C18850919850A1A8038D3B5
:1019F900E50B940074006480F8E50C648098402736
:101A090085171E85181F851920851A21850B2285A2
:101A19000C23850924850A25120FCA850B17850C05
:101A290018850919850A1A7401250BF50B740035F7
:101A39000CF50C745C650B70047400650C701575FD
:101A49000B00750C00751E00751F0075205C752153
:101A590000120F0A751E01751F007B1B1216A47B4D
:101A690003A808791BE7F67A01C3EB9AFBE49BFC10
:101A79000809EB70F0A808A61B08A61C85081E110A
:101A89002585001585011685001E85011F120FAADF
:101A9900850011850112850213850314AC0DAD0E65
:101AA900AE0FAF101202568500118501128502137F
:101AB900850314751E5D751F007520807521001240
:101AC9000F0A12166985111E85121F8513208514A8
:081AD900211211AA214980FE2F
:0A17FA006368616E6E656C203000BC
:101AE10000007E41413F00000042417F4000000074
:101AF1004261594E000000414949370000001C165F
:101B0100117F1000004F4949310000003E49493919
:101B11000000000161390F030036494949360000D0
:061B2100004E49493E00A0
:101B27000000803F1872313FF0FD753E4758633D16
:101B370058951D3C82C4AE3AA8782139EF93803777
:081B4700A092A73546561534A3
:101B4F00FFE6DB2EC4FF7F3F80EFFFBE90E1A93E93
:101B5F00EC8276BE82AD2B3E0E3CC3BD87D1133DCA
:041B6F004178D3BB2B
:0D1B730041444320726573756C743A200084
:021B8000000063
:021B8200000061
:041B8400000000005D
:041B88000000000059
:0C1B8C0041444320696E7075743A2000DB
:0A1B98006368616E6E656C20310019
:071BA2004761696E3A200063
:051BA9004030000000C7
:031BAE000D0A001D
:00000001FF
