:100000000209E10200000000000000020000000000
:1000100000000002000000000000000200000000DC
:0E0020000000000200000000000000020000CE
:10002E003392D530D503120059EB334010E833F834
:10003E00E933F9EA33FAEB33FBD5F0ED22E5F024A0
:10004E007EA2D513CB92E7CAC9F822C3E498F8E48E
:09005E0099F9E49AFAE49BFB22F3
:10006700BD000BB90029E88CF084F8ACF022E4CD90
:10007700FF75F008E828F8E933F9ED33FDE99CED61
:100087009F4005FDE99CF908D5F0E9E4C9FC22EC9D
:10009700FFF5F0E98420D21CF9ACF075F008E828E8
:1000A700F8EC33FC40079F5006D5F0F222C39FFCC3
:0500B70008D5F0EA226B
:1000BC00800302019CEB5A046005EF5E047003029E
:1000CC00019212015D5F0460F6EB4F60F2EB70047D
:1000DC00FAF9F822CF60DB2481CF5009C39F60026C
:1000EC0050060201999F50CAF582EE2E4C4D7005B8
:1000FC00AC8202018875F0007B1A7F80C3E89CE912
:10010C009DEA9E400DC3E89CF8E99DF9EA9EFAEF42
:10011C0042F0DB22ABF0D0E0F8D0E0F9D0E0FAAC62
:10012C008220E7101CEC60BAEB2BFBE833F8E933C8
:10013C00F9EA33FA8032EF03FF30E705C0F075F0CF
:10014C0000E828F8E933F9EA33FA40B930E7C3801C
:10015C00ABEED2E7CE33EF33FF92D5EAD2E7CA3318
:10016C00EB33FB5002B2D522EB30E71008B8000C91
:10017C0009B900080ABA00040CEC60ECA2D5EC1327
:10018C00FBEA92E7FA2274FFFBFAF9F822E480F812
:0C019C00A2D574FF13FB7A80E480EF22F0
:0B01A80085469920990280FBC2992235
:0401B30085468622D5
:1001B700AA46E549A8480A8006A2E713C813C8DA81
:0901C700F8F95300015301002274
:0F01D000AB01AA007900780075F010EB112E2218
:1001DF00C2D5ED30E709B2D5E4C39CFCE49DFDE93F
:1001EF0030E715B2D5E4C398F8E499F9120067C364
:1001FF00E49CFCE49DFD800312006730D507C3E447
:06020F0098F8E499F922C1
:1002150074F8CF6480CFCB6480CBF5820470028004
:1002250043C3E89CF5F0E99D42F0EA9E42F0EB9F5E
:1002350045F060305018E5825CFCE582F428558273
:10024500F8502109B9001D0ABA00190B8016E5827C
:1002550058F8E582F42C5582FC50090DBD00050EB9
:10026500BE00010FC3E89CF5F0E99D42F0EA9E420D
:10027500F0EB9F45F06007CF4B20E701B3EF22225B
:10028500854648A8480548A9470547E7F6E66002B8
:0502950080F1A84622E3
:0B029A00858646E4F547A846A94722E8
:1002A500EC600FE8C333F8E933F9EA33FAEB33FBD3
:0302B500DCF12257
:1002B800754900C3E5499405500BE5482549F8768A
:1002C80020054980EEE5482549F876001549E548B6
:1002D8002549F885004A7C0A7D00A846A947116788
:1002E800A804A905743028F9A84AA6017C0A7D004B
:1002F800A846A9471167850046850147E849700265
:070308008004154980C822A2
:10030F00EB4A6011EF4E7017EA33EB3304600DE4E4
:10031F00FBF8F9FA22EE33EF330470F802044812B7
:10032F0004135F046009E4CB248150062F500902A7
:10033F0004522F400302044FC0E0EC4D7044BE80C6
:10034F0006D0E0FC02043EE849701CBA8008ECF8C5
:10035F00EDF9EEFA80EBEE8AF0A4F9E5F00203F87E
:10036F00EECAFEEDF9ECF8E88EF0A4FBE5F0C98ECD
:10037F00F0A429F8E435F0CA8EF0A42AF9E435F098
:10038F008067E8497005BA80D780C3E88CF0A4ABCA
:10039F00F0E98CF0A42BFBE435F0FFE88DF0A42BF3
:1003AF00E5F03FFBE433CC8AF0A42BFBE5F03CFFF8
:1003BF00E98DF0A42BFBE5F03FFFE433C88EF0A4EA
:1003CF002BFBE5F03FC83400C98EF0A428F8E5F008
:1003DF0039F9E433CE8AF0A429F9E5F03ECA8DF05D
:1003EF00A428F8E5F039F9E43AFA33D0E0FC5006E6
:1003FF000CBC000E804DEB2BFBE833F8E933F9EA28
:10040F0033FA8017EED2E7CE33EF33FF92D5EAD22D
:10041F00E7CA33EB33FB5002B2D522EB30E71008BB
:10042F00B8000C09B900080ABA00040CEC6014A259
:10043F00D5EC13FBEA92E7FA2274FFFBFAF9F822E4
:0F044F00E480F8A2D574FF13FB7A80E480EF22DB
:10045E008503297527C0752800E52545267002807D
:10046E004C74016525700474006526700E740825A1
:10047E0027F52774003528F528803274026525701B
:10048E000474006526700E74102527F52774003548
:10049E0028F528801874036525700474006526708D
:1004AE000C74182527F52774003528F52885278024
:1004BE00C2A085274685284731B3E5AA20E70280EA
:1004CE00F9519A85002A75460075470031B3E5AAA1
:1004DE0020E70280F9519A85002B7546007547007A
:1004EE0031B3E5AA20E70280F9519A85002CD2A0FB
:1004FE007B03A829792AE7F67A01C3EB9AFBE49BE2
:0D050E00FC0809EB70F0852AC6852BC7227A
:10051B00852526A826E6600AA826864631A8052644
:03052B0080F1223A
:10052E007A01A926E5250A8005C333C933C9DAF94C
:0A053E00F87CE87D0331DF31D022A4
:08054800E493F608A3D9F9229F
:0405500075D55122EA
:10055400758780758922758840759850758DF575F5
:05056400B003D28E225D
:10056900852526A826E6600AA826864631A80526F6
:0D05790080F175460D31A875460A31A822A3
:10058600852682852783E493F8601D852682852744
:1005960083E493F9A825A601052574012526F526E9
:0D05A60074003527F52780D8A8257600229F
:1005B30075440075450085252C85262D85272E85B8
:1005C300282FE52C64FF7010E52D64FF700AE52EDB
:1005D30064FF7004E52F64FF7017852946753A4E52
:1005E300753B61753C4E753D0075473A51857803FF
:1005F30022752A01E52F54806010E52F6480F88569
:10060300002F052AA829762D0529E52C452D452EF1
:10061300452F7011852946753E30753F0075473E5D
:100623005185780022E52C64007010E52D6400707C
:100633000AE52E64807004E52F647F7017852946D0
:1006430075404975414E75424675430075474051A3
:1006530085A82A22C37C007D007E8075073FA82CD5
:10066300A92DAA2EAB2F51154004780080027801E2
:10067300E86023A82CA92DAA2EAB2F7C007D007E39
:1006830020750741710F85002C85012D85022E856C
:10069300032F154580BEC37C007D007E2075074176
:1006A300A82CA92DAA2EAB2F511550047800800237
:1006B3007801E86023A82CA92DAA2EAB2F7CCD7D31
:1006C300CC7ECC75073D710F85002C85012D8502ED
:1006D3002E85032F054580BE7C01A82CA92DAA2EAB
:1006E300AB2F51A585002C85012D85022E85032F67
:1006F300C3E52F947FF885002B752F01AC00A82C40
:10070300A92DAA2EAB2F51A585002C85012D85027D
:100713002E85032F7430252FF9A829A6010529C397
:1007230074016480F8E545648098400FD3740664CF
:1007330080F8E54564809850028009A829762E0543
:1007430029754401752B06E52B7002E1B5752F0061
:100753007C02A82CA92DAA2EAB2F51A5E52C28F895
:10076300E52D39F9E52E3AFAE52F3BFB85002C857B
:10077300012D85022E85032F7C01A82CA92DAA2EDD
:10078300AB2F51A585002C85012D85022E85032FC6
:100793007430252FF9A829A6010529E544700F1502
:1007A30045E5457009A829762E0529754401152BC1
:1007B300E14AE52924FFF88601E96430700415292C
:1007C30080F0E52924FFF88601E9642E70021529DB
:1007D300E545604EA82976650529C374006480F851
:1007E300E545648098500DA829762D0529C374002A
:1007F3009545F54585452BD3E5459409401175F09D
:100803000AE52B84F8743028F9A829A6010529756F
:10081300F00AE52B84E5F0F8743028F9A829A6013D
:090823000529A8297600780022BD
:10082C00752600752700752800752900754600751A
:10083C004700A8258601850148E933E495E0F54990
:10084C001201B7E52628F526E52739F5277528077F
:10085C00752900C3E528940074006480F8E52964C8
:10086C00809840427801E526088007C333C52733BA
:10087C00C527D8F7F526852846852947E52524017F
:10088C00F88648E633E495E0F5491201B7E52628E9
:10089C00F526E52739F527C3E5289401F528E52940
:1008AC009400F52980AD752807752900C3E52894B7
:1008BC000574006480F8E52964809840427801E56D
:1008CC0026088007C333C52733C527D8F7F52685F7
:1008DC002846852947E5252402F88648E633E49521
:1008EC00E0F5491201B7E52628F526E52739F52765
:1008FC00C3E5289401F528E5299400F52980ADA8D5
:04090C0026A92722CF
:10091000752A00752B0085252C85262DC3E5259489
:100920000074006480F8E5266480985013752A01ED
:10093000752B00C374009525F52C74009526F52DB4
:10094000852C46852D478527481202B875280675DF
:100950002900D3E5289400E52994004025E52725C2
:1009600028F8C3E5289401F9E5299400FAE5272938
:10097000F9E7F6C3E5289401F528E5299400F5295F
:1009800080D0A8277620E52A452B6034752800758D
:100990002900E5272528F88601E96420700E7401F6
:1009A0002528F52874003529F52980E6C3E5289423
:1009B00001F528E5299400F529E5272528F8762D65
:0109C0002214
:1009C100A825A9261201D07C6F7D127E8375074070
:1009D10012030F7C007D007E807507451200BC224A
:1009E100758180120BE1120550120554D2A00075D9
:1009F10025007526007B2212045E7B03A80879225C
:100A0100E7F67A01C3EB9AFBE49BFC0809EB70F073
:100A1100A808A62208A623850825112C850018857B
:100A2100011985002585012631C185001A85011B23
:100A310085021C85031D7525098530268531271200
:100A410005867525091205697525098534268535BB
:100A51002712058675250912051B85182585192676
:100A6100752709311075250912051B75250985366C
:100A71002685372712058675250912051B851A2536
:100A8100851B26851C27851D287529091205B37527
:100A910025091205697D077E567F3CDFFEDEFCDD00
:100AA100FA7525017526007B2212045E7B03A808D6
:100AB1007922E7F67A01C3EB9AFBE49BFC0809EB88
:100AC10070F0A808A62208A623850825112C850008
:100AD1001885011985002585012631C185001A85F2
:100AE100011B85021C85031D851825851926120504
:100AF1002E85001E85011F8502208503217525098C
:100B010085382685392712058675250912056975E7
:100B1100250985342685352712058675250912058F
:100B21001B85182585192675270931107525091288
:100B3100051B7525098536268537271205867525F6
:100B41000912051B851A25851B26851C27851D284D
:100B51007529091205B375250912056975250985D8
:100B6100322685332712058675250912051B851E38
:100B710025851F268520278521287529091205B37A
:100B81007525091205697D077E567F3CDFFEDEFC77
:060B9100DDFA21F080FEF8
:0E0BE1007830790A7582BC75830B12054822A4
:0D0B970041444320726573756C743A200070
:0C0BA40041444320696E7075743A2000D3
:040BB0004E614E0044
:020BB40030000F
:040BB600494E46005E
:010BBA00003A
:010BBB000039
:020BBC00C60B66
:020BBE00DA0B50
:020BC000970B91
:020BC200A40B82
:020BC400D00B54
:0A0BC6006368616E6E656C203000FC
:0A0BD0006368616E6E656C203100F1
:070BDA004761696E3A20003B
:00000001FF
