:1000000002091B02000000000000000200000000C6
:1000100000000002000000000000000200000000DC
:0E0020000000000200000000000000020000CE
:10002E00BD000BB90029E88CF084F8ACF022E4CDC9
:10003E00FF75F008E828F8E933F9ED33FDE99CED9A
:10004E009F4005FDE99CF908D5F0E9E4C9FC22ECD6
:10005E00FFF5F0E98420D21CF9ACF075F008E82821
:10006E00F8EC33FC40079F5006D5F0F222C39FFCFC
:05007E0008D5F0EA22A4
:10008300C2A6C2A4C2A574B8252AF87400352BF9F8
:0C00930085002A85012B850080D2A62262
:10009F00C2A6C2A4C2A574C0252AF87400352BF9D4
:0C00AF0085002A85012B850080D2A62246
:1000BB003392D530D5031200E6EB334010E833F81A
:1000CB00E933F9EA33FAEB33FBD5F0ED22E5F02413
:1000DB007EA2D513CB92E7CAC9F822C3E498F8E401
:0900EB0099F9E49AFAE49BFB2266
:0C00F400C2A6D2A4C2A5852A80D2A622F2
:10010000C2A6C2A4C2A57440252AF87400352BF9F2
:0C01100085002A85012B850080D2A622E4
:10011C00C2D5ED30E709B2D5E4C39CFCE49DFDE902
:10012C0030E715B2D5E4C398F8E499F912002EC360
:10013C00E49CFCE49DFD800312002E30D507C3E443
:06014C0098F8E499F92285
:10015200EC600FEBC313FBEA13FAE913F9E813F8A7
:03016200DCF122AB
:100165008003020245EB5A046005EF5E047003024A
:10017500023B1202065F0460F6EB4F60F2EB70047F
:10018500FAF9F822CF60DB2481CF5009C39F6002C2
:1001950050060202429F50CAF582EE2E4C4D700564
:1001A500AC8202023175F0007B1A7F80C3E89CE9BE
:1001B5009DEA9E400DC3E89CF8E99DF9EA9EFAEF99
:1001C50042F0DB22ABF0D0E0F8D0E0F9D0E0FAACB9
:1001D5008220E7101CEC60BAEB2BFBE833F8E9331F
:1001E500F9EA33FA8032EF03FF30E705C0F075F026
:1001F50000E828F8E933F9EA33FA40B930E7C38073
:10020500ABEED2E7CE33EF33FF92D5EAD2E7CA336E
:10021500EB33FB5002B2D522EB30E71008B8000CE7
:1002250009B900080ABA00040CEC60ECA2D5EC137D
:10023500FBEA92E7FA2274FFFBFAF9F822E480F868
:0C024500A2D574FF13FB7A80E480EF2246
:100251007806E523852228088008A2E713C528131C
:10026100C528D8F6F5297803E52585242A088008CC
:10027100A2E713C52A13C52AD8F6F52B1183E52861
:100281004529700EC2A2D2A385222A85232B3100D3
:10029100801AD2A2C2A37C407D00A822A923311CCE
:1002A100A804A90585002A85012B3100752A00754E
:0C02B1002B00119F85262A11F4C2A62202
:1002BD00AA22E525A8240A8006A2E713C813C8DAE6
:0902CD00F8F9530001530100226D
:1002D600EF88F0A4CB8CF0A42BFBEE89F0A42BFBCB
:1002E6008DF0EAA42BFBED89F0A4CAAFF08CF0A444
:1002F6002ACB3F25F0FAEE88F0A42BCA35F0FBECAA
:1003060089F0A4F9AEF0EC88F0A4C8C5F029CA3E7D
:0F031600F9E43BFBEDA42AC935F0FAE43BFB22E6
:0F032500AB01AA007900780075F010EB11BB2234
:0B033400858622E4F523A822A92322DD
:04033F00852286226B
:10034300EB4A6011EF4E7017EA33EB3304600DE4B0
:10035300FBF8F9FA22EE33EF330470F802047C124F
:1003630004475F046009E4CB248150062F5009023F
:1003730004862F4003020483C0E0EC4D7044BE802A
:1003830006D0E0FC020472E849701CBA8008ECF85D
:10039300EDF9EEFA80EBEE8AF0A4F9E5F002042C15
:1003A300EECAFEEDF9ECF8E88EF0A4FBE5F0C98E99
:1003B300F0A429F8E435F0CA8EF0A42AF9E435F064
:1003C3008067E8497005BA80D780C3E88CF0A4AB96
:1003D300F0E98CF0A42BFBE435F0FFE88DF0A42BBF
:1003E300E5F03FFBE433CC8AF0A42BFBE5F03CFFC4
:1003F300E98DF0A42BFBE5F03FFFE433C88EF0A4B6
:100403002BFBE5F03FC83400C98EF0A428F8E5F0D3
:1004130039F9E433CE8AF0A429F9E5F03ECA8DF028
:10042300A428F8E5F039F9E43AFA33D0E0FC5006B1
:100433000CBC000E804DEB2BFBE833F8E933F9EAF3
:1004430033FA8017EED2E7CE33EF33FF92D5EAD2F9
:10045300E7CA33EB33FB5002B2D522EB30E7100887
:10046300B8000C09B900080ABA00040CEC6014A225
:10047300D5EC13FBEA92E7FA2274FFFBFAF9F822B0
:0F048300E480F8A2D574FF13FB7A80E480EF22A7
:0404920075D55322A7
:08049600E493F608A3D9F92252
:10049E00C3E5149516E5176480F8E5156480984059
:1004AE000578FF79FF22851418851519C3E518956F
:1004BE0016E5176480F8E5196480985047751A00A0
:1004CE00751B00D3E51A944074006480F8E51B6434
:1004DE0080985022851822851923851A24851B257C
:1004EE0075260075270051517408251AF51A7400E7
:1004FE00351BF51B80CD74012518F51874003519C0
:09050E00F51980A878007900229B
:0E051700D2A6C2A4C2A575803FC2A2C2A32272
:10052500A814A91571257C6F7D127E83750740710E
:0D053500437C007D007E8075074531652206
:10054200751A00751B00751C00751D00751E01755E
:100552001F007806E515851420088008A2E713C558
:100562002013C520D8F6F5217401651870047400B3
:1005720065197006751E00751F007803E51785164C
:100582002A088008A2E713C52A13C52AD8F6F52B34
:100592001183E5204521700EC2A2D2A385142A85BB
:1005A200152B3100801AD2A2C2A37C407D00A81470
:1005B200A915311CA804A90585002A85012B310043
:1005C200752A00752B00119F7C087D00A816A917BB
:1005D200311CA804A90585001C85011D751A00752A
:1005E2001B00C3E51C9401F9E51D9400FAC3E51A4A
:1005F20099EA6480F8E51B64809850207801E51E32
:10060200088007C333C51F33C51FD8F7F51E740111
:10061200251AF51A7400351BF51B80C6D3E516940E
:100622000074006480F8E51764809840127801E550
:100632001E088007C333C51F33C51FD8F7F51E85B3
:070642001E2A11F4C2A622DA
:1006490075164175170375180075190078417903F6
:100659007A007B00AC14AD15E4FEE4F50751D685AC
:1006690000168501178502188503197C0531528505
:100679000016850117850218850319D3E89408E93E
:100689009400EA9400EB9400401BC3E5169408F526
:1006990016E5179400F517E5189400F518E519946F
:1006A90000F519800C751600751700751800751975
:1006B90000E5164517451845196026C3E516940146
:1006C900F516E5179400F517E5189400F518E519DE
:1006D9009400F519000000000000000000000080EF
:0206E900D0221D
:1006EB007516007517007518FF7519007806E51556
:1006FB0085141A088008A2E713C51A13C51AD8F671
:10070B00F51B751600751700C3E516940874006485
:10071B0080F8E5176480985051E51A451B700EC29E
:10072B00A2D2A385142A85152B3100801AD2A2C21E
:10073B00A37C407D00A814A915311CA804A905852C
:10074B00002A85012B310085162A85172B118375FD
:10075B002A00752B00119F85182A11F47401251698
:0D076B00F51674003517F517809EC2A62202
:100778008503187516C0751700E5144515700280B5
:100788004C74016514700474006515700E740825A6
:1007980016F51674003517F5178032740265147053
:1007A8000474006515700E74102516F5167400355E
:1007B80017F51780187403651470047400651570B4
:1007C8000C74182516F51674003517F5178516805C
:1007D800C2A0851622851723713FE5AA20E702806B
:1007E800F97134850019752200752300713FE5AA57
:1007F80020E70280F9713485001A752200752300FC
:1008080012033FE5AA20E70280F912033485001B92
:10081800D2A07B03A8187919E7F67A01C3EB9AFBF3
:0F082800E49BFC0809EB70F08519A7851AA8223C
:100837007515007516007517007518007522007577
:100847002300A8148601850124E933E495E0F52502
:100857001202BDE51528F515E51639F516751707C2
:10086700751800C3E517940074006480F8E51864F0
:10087700809840427801E515088007C333C51633D1
:10088700C516D8F7F515851722851823E514240111
:10089700F88624E633E495E0F5251202BDE5152830
:1008A700F515E51639F516C3E5179401F517E5189B
:1008B7009400F51880AD751707751800C3E51794F0
:1008C7000574006480F8E51864809840427801E573
:1008D70015088007C333C51633C516D8F7F5158530
:1008E7001722851823E5142402F88624E633E495B5
:1008F700E0F5251202BDE51528F515E51639F516BB
:10090700C3E5179401F517E5189400F51880ADA80D
:0409170015A91622E6
:10091B00758180750900750A00750B01750C0075E2
:10092B000DFF750EFF75B000120492D2A0001205D8
:10093B001775140075150075168075170012049E37
:10094B0075145C7515001206EB7514007515007B9C
:10095B00111207787B03A8087911E7F67A01C3EB2C
:10096B009AFBE49BFC0809EB70F0A808A61108A6FB
:10097B0012850814113785000F8501108500148529
:10098B0001151205257A06E510A80F0A8006A2E7C5
:10099B0013C813C8DAF8F9C3744098F516740099A4
:1009AB00F517C3E5169401F516E5179400F51785B1
:1009BB000914850A15751800751900120542740182
:1009CB002509F5097400350AF50A74806509700468
:1009DB007400650A7015750900750A0075140075A9
:1009EB00150075168075170012049EE5B030E020D7
:1009FB0074FF650D700474FF650E700C7401250B8C
:100A0B00F50B7400350CF50C750D00750E00805C44
:100A1B00E5B020E00DE5B020E108750DFF750EFF88
:100A2B00804AE5B030E13274FF650D700474FF65E8
:100A3B000E701ED3E50B940074006480F8E50C6413
:100A4B008098400DC3E50B9401F50BE50C9400F574
:100A5B000C750D00750E008013E5B020E108750DC7
:100A6B00FF750EFF8006750DFF750EFF850B148548
:090A7B000C15120649215480FEFD
:0D0A840041444320726573756C743A200084
:0C0A910041444320696E7075743A2000E7
:0A0A9D006368616E6E656C20310025
:0A0AA7006368616E6E656C2030001C
:070AB1004761696E3A200065
:030AB8000D0A0024
:00000001FF
