:1000000002012302000000000000000200000000C6
:1000100000000002000000000000000200000000DC
:0E0020000000000200000000000000020000CE
:04002E00851686228B
:0B003200858616E4F517A816A9172212
:10003D008503127510C0751100E50E450F70028015
:10004D004C7401650E70047400650F700E741025EC
:10005D0010F51074003511F51180327402650E70B3
:10006D00047400650F700E74202510F510740035A2
:10007D0011F51180187403650E70047400650F700E
:10008D000C74302510F51074003511F511C2A085D2
:10009D001016851117112EE5AA20E70280F91132ED
:1000AD00850013751600751700112EE5AA20E702BD
:1000BD0080F91132850014751600751700112EE5A3
:1000CD00AA20E70280F91132850015D2A07B03A882
:1000DD00127913E7F67A01C3EB9AFBE49BFC08094E
:0A00ED00EB70F08513A08514A1222A
:0B00F700850E9920990280FBC299221F
:08010200E493F608A3D9F922E9
:04010A0075D5512234
:10010E00758780758922758840759850758DF5753F
:05011E00B003D28E22A7
:10012300758180310A310ED2A000750E00750F0063
:100133007B0B113D7B037808790BE7F67A01C3EB60
:100143009AFBE49BFC0809EB70F0850B08850C090E
:10015300750E0011F785080E11F785090E11F78545
:100163000A0E11F77D0D7EAB7F7CDFFEDEFCDDFA30
:10017300750E01750F007B0B113D7B037808790B1E
:10018300E7F67A01C3EB9AFBE49BFC0809EB70F0FA
:10019300850B08850C09750E0111F785080E11F7FB
:1001A30085090E11F7850A0E11F77D0D7EAB7F7C55
:0A01B300DFFEDEFCDDFA212D80FEE8
:00000001FF
